:020000040800F2
:100000002804002001010008090100080B01000874
:100010000D0100080F010008110100080000000098
:1000200000000000000000000000000013010008B4
:100030001501000800000000170100081901000860
:100040001B0100081B0100081B0100081B01000820
:100050001B0100081B0100081B0100081B01000810
:100060001B0100081B0100081B0100081B01000800
:100070001B0100081B0100081B0100081B010008F0
:100080001B0100081B0100081B0100081B010008E0
:100090001B0100081B0100081B0100081B010008D0
:1000A0001B0100081B0100081B0100081B010008C0
:1000B0001B0100081B0100081B0100081B010008B0
:1000C0001B0100081B0100081B0100081B010008A0
:1000D0001B0100081B0100081B0100081B01000890
:1000E0001B0100081B0100081B010008DFF80CD0F1
:1000F00000F018F800480047F10300082804002029
:100100000648804706480047FEE7FEE7FEE7FEE7B1
:10011000FEE7FEE7FEE7FEE7FEE7FEE7490300082D
:10012000ED000008064C074D06E0E06840F00103D2
:1001300094E8070098471034AC42F6D3FFF7DAFF93
:10014000280400084804000880B582B0002001900F
:10015000FFE70198082814DCFFE7019940F200004E
:10016000C2F2000050F8210040F60C01C4F2010177
:100170000860642000F01CF9FFE70198013001904D
:10018000E7E702B080BD000080B582B00820019092
:10019000FFE70198002814D4FFE7019940F200001E
:1001A000C2F2000050F8210040F60C01C4F2010137
:1001B0000860642000F0FCF8FFE701980138019026
:1001C000E7E702B080BD000080B50420012100F007
:1001D00009F840F60001C4F201014FF03330086025
:1001E00080BD000082B001908DF803109DF80300DF
:1001F00048B1FFE7019A41F21801C4F20201086810
:100200001043086008E0019A41F21801C4F20201AB
:10021000086890430860FFE702B0704780B500F0BF
:1002200001F880BD84B000200390029041F20001EB
:10023000C4F20201086840F480300860FFE741F230
:100240000000C4F20200006800F40030029003983D
:1002500001300390FFE702990020019039B9FFE7D0
:100260000398B0F5A06018BF01200190FFE7019846
:10027000C0070028E3D1FFE741F20000C4F202000A
:1002800000688003002803D5FFE70120029002E008
:1002900000200290FFE70298012851D1FFE742F2C7
:1002A0000001C4F20201086840F01000086008680C
:1002B00020F007000860086840F00200086041F282
:1002C0000401C4F20201009108680860086808602F
:1002D000086840F480600860086820F47C100860BA
:1002E000086840F4E810086041F20001C4F202011D
:1002F000086840F080700860FFE741F20000C4F237
:10030000020000688001002801D4FFE7F5E741F210
:100310000401C4F20201086820F0030008600868C4
:1003200040F002000860FFE741F20400C4F202005E
:10033000006800F00C00082801D0FFE7F4E700E0B7
:10034000FFE704B07047000080B541F20002C4F23C
:100350000202106840F00100106041F20401C4F292
:10036000020108680023CFF6FF03184008601068F8
:100370004FF6FF73CFF6F66318401060106820F454
:1003800080201060086820F4FE00086041F2080137
:10039000C4F202014FF41F000860FFF73FFF4EF662
:1003A0000851CEF200014FF00060086080BD0000EF
:1003B00083B0029000200190FFE7019802998842E3
:1003C00013D2FFE700200090FFE7009842F6FE21DD
:1003D000884205D8FFE7FFE7009801300090F4E776
:1003E000FFE7019801300190E7E703B07047000094
:1003F00080B582B000200190FFF7E6FEFFE7FFF72F
:10040000A3FEFFF7C1FEFAE702E008C8121F08C109
:10041000002AFAD170477047002001E001C1121F85
:10042000002AFBD1704700004804000800000020AB
:1004300024000000080400086C04000828000020C4
:100440000004000018040008FF000000FE00000087
:10045000FC000000F8000000F0000000E0000000D8
:0C046000C0000000800000000000000050
:0400000508000101ED
:00000001FF
