:020000040800F2
:100000001004002001010008090100080B0100088C
:100010000D0100080F010008110100080000000098
:1000200000000000000000000000000013010008B4
:100030001501000800000000170100081901000860
:100040001B0100081B0100081B0100081B01000820
:100050001B0100081B0100081B0100081B01000810
:100060001B0100081B0100081B0100081B01000800
:100070001B0100081B0100081B0100081B010008F0
:100080001B0100081B0100081B0100081B010008E0
:100090001B0100081B0100081B0100081B010008D0
:1000A0001B0100081B0100081B0100081B010008C0
:1000B0001B0100081B0100081B0100081B010008B0
:1000C0001B0100081B0100081B0100081B010008A0
:1000D0001B0100081B0100081B0100081B01000890
:1000E0001B0100081B0100081B010008DFF80CD0F1
:1000F00000F018F800480047F10E00081004002036
:100100000648804706480047FEE7FEE7FEE7FEE7B1
:10011000FEE7FEE7FEE7FEE7FEE7FEE7F90C000874
:10012000ED000008064C074D06E0E06840F00103D2
:1001300094E8070098471034AC42F6D3FFF7DAFF93
:10014000C80F0008D80F000880B586B010200190B5
:100150000121029100F064FC01988DF817004FF422
:100160000050ADF81400032003908DF8160041F202
:100170000000C4F2010005A9049100F07BF8029987
:10018000082000F04DFC039804991C228DF81720DC
:10019000C022ADF814208DF8160040F60040C4F2DD
:1001A000010000F067F806B080BD000080B582B0A5
:1001B0004FF400100121019100F016FC40F2000103
:1001C000C2F200014FF4806048814FF48040888182
:1001D00048F2A060C0F2010008604BF6FF70C880D2
:1001E0000020888045F20040C4F20000009000F03A
:1001F00085F90098019900F03FF902B080BD000038
:1002000080B586B001210291084600F0EDFB002088
:10021000ADF80E004FF6FF70ADF810004720ADF8B6
:100220000C004FF08040019003A900F0BFFD019841
:10023000029900F095FD06B080BD000080B582B047
:100240000190FFE70198411E019180B1FFE74FF057
:100250008040002100F0A0FDFFE74FF0804000F05B
:1002600095FDB0F57A7F01DAFFE7F6E7EAE702B03D
:1002700080BD000088B00790069100200590049092
:1002800003900290019000900698C07800F00F0053
:1002900005900698C078C006002806D5FFE70698A6
:1002A0008178059808430590FFE7069800780028B4
:1002B0004BD0FFE707980068019000200390FFE70C
:1002C000039807283DD8FFE7039901208840029052
:1002D0000698008802990840049004980299884280
:1002E0002AD1FFE703988000029002990F208840EE
:1002F000009000990198884301900598029900FAAE
:1003000001F10198084301900698C078282806D189
:10031000FFE7039901208840079948610BE00698A0
:10032000C078482806D1FFE7039901208840079943
:100330000861FFE7FFE7FFE7FFE70398013003905D
:10034000BEE7019807990860FFE706980088B0F5B6
:10035000807F50DBFFE70798406801900020039002
:10036000FFE70398072842D8FFE7039800F1080148
:100370000120884002900698008802990840049065
:100380000498029988422DD1FFE7039880000290DB
:1003900002990F20884000900099019888430190AD
:1003A0000598029900FA01F1019808430190069816
:1003B000C078282808D1FFE7039800F10801012040
:1003C000884007994861FFE70698C078482808D117
:1003D000FFE7039800F108010120884007990861B0
:1003E000FFE7FFE7FFE7039801300390B9E70198C3
:1003F00007994860FFE708B07047000082B001909D
:10040000ADF80210BDF802000199486102B07047D2
:1004100082B00190ADF80210BDF8020001990861A8
:1004200002B0704786B005900491002003900290BE
:1004300001908DF803000598808A02900598008B42
:10044000019001980004019002980199084320F05E
:100450007F400390039804990840884204D1FFE745
:1004600001208DF8030003E000208DF80300FFE772
:100470009DF8030006B0704782B001908DF803101C
:100480009DF8030030B1FFE70199088840F00100B2
:10049000088005E00199088820F001000880FFE746
:1004A00002B0704782B001908DF803109DF80300F0
:1004B00030B1FFE70199088840F48070088005E0BA
:1004C0000199088820F480700880FFE702B0704727
:1004D00082B001908DF803109DF8030030B1FFE762
:1004E0000199088840F40070088005E001990888A7
:1004F00020F400700880FFE702B0704780B58CB030
:100500000B900A9100200190ADF82600ADF8240070
:100510000420ADF8220041F20020C0F27A000790DA
:100520000B988088ADF82600BDF8260020F03F002B
:10053000ADF8260002A800F08FFA019804990791FF
:1005400007994DF68362C4F21B32A1FB0221890C8C
:10055000ADF82410BDF82420BDF826101143ADF8E5
:100560002610BDF826100B9A91800B9A118821F065
:1005700001011180ADF826000A98006848F2A061D8
:10058000C0F2010188421ED8FFE707980A9909685E
:100590004900B0FBF1F0ADF82200BDF822000328BD
:1005A00004DCFFE70420ADF82200FFE7BDF82210CD
:1005B000BDF826000843ADF82600BDF82400013040
:1005C0000B99088446E00A98C0884BF6FF71884270
:1005D0000AD1FFE707980A99096801EB4101B0FBCE
:1005E000F1F0ADF822000FE007980A990968192286
:1005F0005143B0FBF1F0ADF82200BDF8220040F409
:100600008040ADF82200FFE7BDF82200000538B9B0
:10061000FFE7BDF8220040F00100ADF82200FFE73F
:10062000BDF82200BDF82610084340F40040ADF8A4
:100630002600BDF824004FF49671484344F6D35188
:10064000C1F26201A0FB0101012000EB91100B99A6
:100650000884FFE7BDF826000B9988830B9908886A
:1006600040F0010008800B980088ADF82600BDF826
:1006700026004FF6F5310840ADF826000A99888823
:1006800049890143BDF826000843ADF82600BDF8AE
:1006900026000B9908800A998889098908430B99D3
:1006A00008810CB080BD000080B584B0ADF80E00AC
:1006B0000291ADF8062045F20040C4F2000001218D
:1006C000FFF7F0FEFFE745F20040C4F20000012111
:1006D000C0F20301FFF7A6FE08B9FFE7F3E79DF8B4
:1006E0000E1045F20040C4F20000002200F040F875
:1006F000FFE745F20040C4F200008221C0F207018A
:10070000FFF790FE08B9FFE7F3E700208DF805003A
:10071000FFE79DF80500BDF8061088421EDAFFE7E6
:1007200002989DF80510415C45F20040C4F20000BB
:1007300000F03CF8FFE745F20040C4F200008421DD
:10074000C0F20701FFF76EFE08B9FFE7F3E7FFE726
:100750009DF8050001308DF80500DAE745F200400C
:10076000C4F200000121FFF7B3FE04B080BD000019
:1007700082B001908DF803108DF802209DF80200E0
:1007800038B1FFE79DF8030040F001008DF8030049
:1007900006E09DF8030000F0FE008DF80300FFE77F
:1007A0009DF803000199088202B0704782B0019061
:1007B0008DF803109DF803000199088202B070477C
:1007C00080B584B03220FFF739FD3020019000F071
:1007D00099F80520FFF732FD019800F093F8012009
:1007E0000390FFF72BFD019800F08CF80A2002908F
:1007F000FFF724FD202000F085F80298FFF71EFD8A
:10080000282000F07FF80398FFF718FD082000F07B
:1008100079F80398FFF712FD039800F073F8039836
:10082000FFF70CFD062000F06DF80398FFF706FDBA
:100830000C2000F067F804B080BD000080B582B0E5
:100840008DF8070000208DF80600FFE79DF80600F0
:100850009DF8071088420EDAFFE7182000F052F8E2
:100860004FF4C870FFF7EAFCFFE79DF8060001307F
:100870008DF80600EAE702B080BD000080B582B0C6
:100880008DF807008DF806109DF8070038B9FFE7CE
:100890009DF8060040F080008DF806000CE09DF801
:1008A0000700012807D1FFE79DF8060040F0C000CF
:1008B0008DF80600FFE7FFE79DF8060000F022F83C
:1008C00002B080BD80B582B08DF8070000208DF8A1
:1008D0000600FFE79DF806009DF8071088420EDA33
:1008E000FFE71C2000F00EF84FF4C870FFF7A6FCDD
:1008F000FFE79DF8060001308DF80600EAE702B038
:1009000080BD000080B582B08DF807009DF807001B
:1009100000F0F0008DF806009DF8070000018DF84A
:1009200005009DF8060040F00C008DF801009DF8D0
:10093000060040F008008DF802009DF8050040F028
:100940000C008DF803009DF8050040F008008DF8BC
:1009500004004E200DF101010422FFF7A5FE02B0B4
:1009600080BD000080B582B08DF807009DF80700BB
:1009700000F0F0008DF806009DF8070000018DF8EA
:1009800005009DF8060040F00D008DF801009DF86F
:10099000060040F009008DF802009DF8050040F0C7
:1009A0000D008DF803009DF8050040F009008DF85A
:1009B00004004E200DF101010422FFF775FE02B084
:1009C00080BD000080B582B00190FFE701980078FB
:1009D00038B1FFE70198411C01910078FFF7C2FF91
:1009E000F4E702B080BD000082B001908DF80310E2
:1009F0009DF8030048B1FFE7019A41F21C01C4F2DF
:100A0000020108681043086008E0019A41F21C01E5
:100A1000C4F20201086890430860FFE702B0704723
:100A200082B001908DF803109DF8030048B1FFE7F4
:100A3000019A41F21801C4F20201086810430860EB
:100A400008E0019A41F21801C4F2020108689043DB
:100A50000860FFE702B0704786B005900020049060
:100A600003900290019041F20400C4F20200006879
:100A700000F00C0004900498009040B1FFE700984B
:100A800004280BD0FFE7009808280ED047E005990E
:100A900041F20020C0F27A00086047E0059941F277
:100AA0000020C0F27A00086040E041F20400C4F285
:100AB0000200016801F470110391006800F48030B5
:100AC00002900399022000EB91400390029848B9EC
:100AD000FFE7039840F60011C0F23D014843059935
:100AE00008601BE041F20400C4F2020000688003C9
:100AF000002809D5FFE7039840F60011C0F23D0138
:100B000048430599086008E0039841F20021C0F2CB
:100B10007A01484305990860FFE7FFE706E0059979
:100B200041F20020C0F27A000860FFE741F20400C1
:100B3000C4F20200016801F0F0010491049909096E
:100B40000491049A40F6A271C0F600018A5C0192F9
:100B5000059B1A68DDF804C022FA0CF25A6002689C
:100B600002F4E0620492049A120A0492049A8A5CE3
:100B70000192059B5A68DDF804C022FA0CF29A60D3
:100B8000026802F460520492049AD20A0492049A0F
:100B9000895C0191059A5168019BD940D160006838
:100BA00000F4404004900498800B0490049940F6AF
:100BB0009E70C0F60000405C01900599C868019ADB
:100BC000B0FBF2F0086106B07047000080B500F09D
:100BD00001F880BD84B000200390029041F2000132
:100BE000C4F20201086840F480300860FFE741F277
:100BF0000000C4F20200006800F400300290039884
:100C000001300390FFE702990020019039B9FFE716
:100C10000398B0F5A06018BF01200190FFE701988C
:100C2000C0070028E3D1FFE741F20000C4F2020050
:100C300000688003002803D5FFE70120029002E04E
:100C400000200290FFE70298012851D1FFE742F20D
:100C50000001C4F20201086840F010000860086852
:100C600020F007000860086840F00200086041F2C8
:100C70000401C4F202010091086808600868086075
:100C8000086840F480600860086820F47C10086000
:100C9000086840F4E810086041F20001C4F2020163
:100CA000086840F080700860FFE741F20000C4F27D
:100CB000020000688001002801D4FFE7F5E741F257
:100CC0000401C4F20201086820F00300086008680B
:100CD00040F002000860FFE741F20400C4F20200A5
:100CE000006800F00C00082801D0FFE7F4E700E0FE
:100CF000FFE704B07047000080B541F20002C4F283
:100D00000202106840F00100106041F20401C4F2D8
:100D1000020108680023CFF6FF031840086010683E
:100D20004FF6FF73CFF6F66318401060106820F49A
:100D300080201060086820F4FE00086041F208017D
:100D4000C4F202014FF41F000860FFF73FFF4EF6A8
:100D50000851CEF200014FF00060086080BD000035
:100D600082B001908DF803109DF8030030B1FFE7C9
:100D70000199088840F00100088005E00199088881
:100D800020F001000880FFE702B0704781B00090BA
:100D90000098808C01B0704782B00190ADF80210CD
:100DA000BDF802000199888402B0704783B00290B8
:100DB00001910020ADF8020002980088ADF8020011
:100DC000029842F60041C4F20101884225D0FFE7B3
:100DD000029843F20041C4F2010188421DD0FFE7AE
:100DE0000298B0F1804F18D0FFE7029840F200411E
:100DF000C4F20001884210D0FFE7029840F60001DB
:100E0000C4F20001884208D0FFE7029840F6004192
:100E1000C4F2000188420ED1FFE7BDF8020020F0C5
:100E20007000ADF8020001984188BDF80200084347
:100E3000ADF80200FFE7029841F20001C4F20001A0
:100E4000884216D0FFE7029841F20041C4F2000147
:100E500088420ED0FFE7BDF8020020F44070ADF8E4
:100E600002000198C188BDF802000843ADF80200F5
:100E7000FFE7BDF802000299088001988088029976
:100E800088850198008802990885029842F60041F9
:100E9000C4F20101884220D0FFE7029843F20041EA
:100EA000C4F20101884218D0FFE7029844F2000121
:100EB000C4F20101884210D0FFE7029844F20041D9
:100EC000C4F20101884208D0FFE7029844F600010D
:100ED000C4F20101884205D1FFE70198007A029926
:100EE0000886FFE702990120888203B0704700005E
:100EF00080B588B0002005900790FFF725F9FFF72F
:100F000055F9FFF77DF9FFF75BFC05980121069184
:100F1000FFF7B4FC40F6B270C0F60000FFF752FDD8
:100F200006980521FFF7AAFC40F6C070C0F6000045
:100F3000FFF748FD41F28830FFF780F90620FFF700
:100F40007DFCFFE70C200190FFF7BCFC0198FFF748
:100F500075FC41F20000C4F2010002904FF4005110
:100F60000391FFF74BFA4FF4FA700490FFF766F91C
:100F700002980399FFF74CFA0498FFF75FF9E1E74D
:100F800002E008C8121F08C1002AFAD17047704752
:100F9000002001E001C1121F002AFBD170470204AA
:100FA0000608000000000102030401020304060712
:100FB00008094B494D205455414E204B49454E00A0
:100FC0005054495400000000D80F000800000020D1
:080FD00010040000900F00085E
:0400000508000101ED
:00000001FF
