:020000040800F2
:100000003004002001010008090100080B0100086C
:100010000D0100080F010008110100080000000098
:1000200000000000000000000000000013010008B4
:100030001501000800000000170100081901000860
:100040001B0100081B0100081B0100081B01000820
:100050001B0100081B0100081B0100081B01000810
:100060001B0100081B0100081B0100081B01000800
:100070001B0100081B0100081B0100081B010008F0
:100080001B0100081B0100081B0100081B010008E0
:100090001B0100081B0100081B0100081B010008D0
:1000A0001B0100081B0100081B0100081B010008C0
:1000B0001B0100081B0100081B0100081B010008B0
:1000C0001B0100081B0100081B0100081B010008A0
:1000D0001B0100081B0100081B0100081B01000890
:1000E0001B0100081B0100081B010008DFF80CD0F1
:1000F00000F018FA00480047CD1500083004002031
:100100000648804706480047FEE7FEE7FEE7FEE7B1
:10011000FEE7FEE7FEE7FEE7FEE7FEE7D513000891
:10012000ED00000830B50B460146002020220124D6
:1001300009E021FA02F59D4205D303FA02F5491BB5
:1001400004FA02F52844151EA2F10102F1DC30BDCB
:100150002DE9F05F0546002092469B4688460646FC
:10016000814640241BE0284641464746224600F08F
:10017000FAF953465A46C01A914110D3114618460F
:10018000224600F0E1F92D1A67EB01084F4622469E
:100190000120002100F0D8F917EB00094E41201E84
:1001A000A4F10104DFDC484631462A464346BDE857
:1001B000F09F2DE9FE4F804681EA0300C00F0C46F8
:1001C000009021F0004123F00045B8EB0200A94166
:1001D00005D24046214690461C460B46024623F077
:1001E0000040104347D0270DC7F30A00C3F30A515C
:1001F0000290401A019040286BDAC3F3130040F4D8
:10020000801B0098924620B10023D2EB030A63EBD7
:100210000B0B01985946C0F14002504600F094F98A
:1002200006460D4650465946019A00F0ACF910EBCF
:1002300008006141002487EA115284EAE7731A43F7
:1002400040D0009A62B3019A012A4FEA075215DCA6
:10025000001B61EB02014FF0004202EA0752CDE9B8
:100260000042001C41F5801132462B4600F0ACF9EB
:1002700003B0BDE8F08F40462146F9E7001B61EB73
:100280000201001C41F5801300185B412018A2F503
:10029000001747EB030140EAD570B6196D4111E034
:1002A0006D084FEA360645EAC0754FEA0752001B53
:1002B00061EB0201001C41F5801149084FEA300052
:1002C0000019514132462B4603B0BDE8F04F00F013
:1002D0006CB90098012240000023D0EB020263EBCE
:1002E000E073009821464FEAE074B8EB000061EB40
:1002F0000401E9E783F000435BE781F0004158E740
:100300002DE9FE4F81EA030404F0004421F000418E
:1003100000944FF0000B23F0004350EA01045ED03C
:1003200052EA03045BD0C3F30A54C1F30A552C44C8
:10033000A4F2F3340194A0FB0254C1F3130141F47D
:100340008011C3F3130343F4801301FB024400FB49
:10035000034E840A970A44EA815447EA8357A4FB70
:10036000076802958D0A05FB07854FEA932C04FB6D
:100370000C542705029D4FEA065847EA1637B5EB9D
:1003800008056EEB070C870E920E47EA811742EACA
:100390008312A7FB0201B6EB0B0164EB00042B0DEB
:1003A00043EA0C335E1844EB1C50DA465146E7FB37
:1003B0000201C5F313044FEA0B3343EA14534FEA27
:1003C0000432019C43EA0603A4F10C040294009C4D
:1003D000CDE900B400F0F8F803B0BDE8F08F0020DC
:1003E0000146F9E72DE9F04D81EA030404F0004BE2
:1003F00021F0004514464FF0000A23F0004150EA76
:10040000050220D054EA01021DD0C5F30A57024666
:10041000C5F31303C1F31300C1F30A5640F480156A
:1004200043F48013A7EB0608101BD64608F2FD38EC
:1004300073EB050002D308F1010801E092185B415B
:10044000B8F1000F03DA00200146BDE8F08D00206E
:100450004FF48011064684460EE0171B73EB050728
:1004600005D3121B63EB050306434CEA010C490854
:100470004FEA300092185B4150EA0107EDD152EA91
:10048000030012D082EA040083EA0501084305D084
:10049000101BAB4106D20122002306E000224FF0E0
:1004A000004302E06FF0010253101AEB06004CEB20
:1004B000085110EB0A0041EB0B01BDE8F04D00F0D4
:1004C00074B8C1F30A52C1F3130140F2FF3341F48F
:1004D00080119A4202DA00200146704740F233430D
:1004E0009A42A2F2334202DC524200F03CB800F0E1
:1004F0002BB8000030B5041E71F1000404DB4FF08E
:100500000044404264EB0101141E73F1000405DB5A
:100510001C464FF00043524263EB0403994208BF6C
:10052000904230BD064C074D06E0E06840F0010304
:1005300094E8070098471034AC42F6D3FFF7DAFD91
:10054000B0200008C0200008202A04DB203A00FA6E
:1005500002F1002070479140C2F1200320FA03F31A
:10056000194390407047202A04DB203A21FA02F018
:100570000021704721FA02F3D040C2F120029140DD
:10058000084319467047202A06DBCB17203A41FA68
:1005900002F043EAE07306E041FA02F3D040C2F110
:1005A0002002914008431946704710B5141E73F19C
:1005B000000408DA401C41F1000192185B411A4323
:1005C00001D120F0010010BD2DE9F04D92469B466F
:1005D00011B1B1FA81F202E0B0FA80F22032904615
:1005E000FFF7B2FF04460F4640EA0A0041EA0B015A
:1005F00053465A46084313D0114653EA010019D016
:10060000C8F140025046FFF7AEFF05460E46504681
:1006100059464246FFF798FF084305D0012004E001
:1006200020463946BDE8F08D0020054346EAE076D5
:100630002C4337430A986305E40AA0EB0800002224
:10064000FD0A44EA47540A3002D500200146E9E792
:10065000010510196941DDE9084500196941BDE846
:10066000F04DA2E780B582B000208DF8070040F67B
:100670000000C4F20100012100F0D0F9A8B9FFE7A1
:10068000642000F0B7F840F60000C4F20100012138
:1006900000F0C4F920B1FFE701208DF8070003E066
:1006A00002208DF80700FFE7FFE7FFE740F60000B4
:1006B000C4F20100012100F0B1F908B1FFE7F5E74C
:1006C0009DF8070002B080BD80B584B008200121EC
:1006D000039100F0A9FC40F21001C2F20001019167
:1006E0001C20C870C020088003200090887040F64D
:1006F0000040C4F2010000F0CDF80399042000F09E
:1007000093FC00980199039A1423CB700A80887097
:1007100040F60000C4F20100029000F0BBF802981D
:10072000039900F09FF904B080BD000080B582B04D
:100730004FF400100121019100F05AFC40F2140125
:10074000C2F200014FF4806048814FF480408881FC
:1007500048F2A060C0F2010008604BF6FF70C8804C
:100760000020888045F20040C4F20000009000F0B4
:10077000EFF90098019900F0A9F902B080BD0000DE
:1007800080B582B001210191084600F031FC40F2B1
:100790002401C2F20001002048804FF6FF708880DB
:1007A000472008804FF08040009000F06DFE0098D8
:1007B000019900F043FE02B080BD000080B582B018
:1007C0000190FFE70198411E019180B1FFE74FF0D2
:1007D0008040002100F04EFEFFE74FF0804000F027
:1007E00043FEB0F57A7F01DAFFE7F6E7EAE702B009
:1007F00080BD000080B582B001904FF080400021A4
:1008000000F038FEFFE74FF0804000F02DFE019928
:10081000884201D2FFE7F6E702B080BD80B588B01C
:10082000079000200690059004900390029001210B
:10083000084600F047FB079A42F25C01C0F600014F
:1008400002A8019000F07EFF019800F0BFFB42F289
:100850006800C0F6000000F0B9FB08B080BD0000E1
:1008600080B588B007900020069005900490039012
:100870000290012100F026FB079A42F27501C0F6B2
:10088000000102A8019000F05DFF019800F09EFBBE
:1008900008B080BD88B007900691002005900490B4
:1008A00003900290019000900698C07800F00F002D
:1008B00005900698C078C006002806D5FFE7069880
:1008C0008178059808430590FFE70698007800288E
:1008D0004BD0FFE707980068019000200390FFE7E6
:1008E000039807283DD8FFE703990120884002902C
:1008F000069800880299084004900498029988425A
:100900002AD1FFE703988000029002990F208840C7
:10091000009000990198884301900598029900FA87
:1009200001F10198084301900698C078282806D163
:10093000FFE7039901208840079948610BE006987A
:10094000C078482806D1FFE703990120884007991D
:100950000861FFE7FFE7FFE7FFE703980130039037
:10096000BEE7019807990860FFE706980088B0F590
:10097000807F50DBFFE707984068019000200390DC
:10098000FFE70398072842D8FFE7039800F1080122
:10099000012088400290069800880299084004903F
:1009A0000498029988422DD1FFE7039880000290B5
:1009B00002990F2088400090009901988843019087
:1009C0000598029900FA01F10198084301900698F0
:1009D000C078282808D1FFE7039800F1080101201A
:1009E000884007994861FFE70698C078482808D1F1
:1009F000FFE7039800F1080101208840079908618A
:100A0000FFE7FFE7FFE7039801300390B9E701989C
:100A100007994860FFE708B07047000082B0019076
:100A2000ADF8021000208DF8010001988068BDF833
:100A30000210084204D0FFE701208DF8010003E016
:100A400000208DF80100FFE79DF8010002B070471B
:100A500082B00190ADF80210BDF802000199486122
:100A600002B0704782B00190ADF80210BDF80200EC
:100A70000199086102B0704786B00590049100208A
:100A80000390029001908DF803000598808A0290EF
:100A90000598008B0190019800040190029801993B
:100AA000084320F07F40039003980499084088424F
:100AB00004D1FFE701208DF8030003E000208DF84A
:100AC0000300FFE79DF8030006B0704782B0019075
:100AD0008DF803109DF8030030B1FFE701990888F5
:100AE00040F00100088005E00199088820F001002D
:100AF0000880FFE702B0704782B001908DF80310C4
:100B00009DF8030030B1FFE70199088840F4807038
:100B1000088005E00199088820F480700880FFE7CC
:100B200002B0704782B001908DF803109DF8030069
:100B300030B1FFE70199088840F40070088005E0B3
:100B40000199088820F400700880FFE702B0704720
:100B500080B58CB00B900A9100200190ADF8260072
:100B6000ADF824000420ADF8220041F20020C0F2CC
:100B70007A0007900B988088ADF82600BDF8260013
:100B800020F03F00ADF8260002A800F069FA0198B5
:100B90000499079107994DF68362C4F21B32A1FBB9
:100BA0000221890CADF82410BDF82420BDF82610D0
:100BB0001143ADF82610BDF826100B9A91800B9AC0
:100BC000118821F001011180ADF826000A98006813
:100BD00048F2A061C0F2010188421ED8FFE70798E1
:100BE0000A9909684900B0FBF1F0ADF82200BDF8A0
:100BF0002200032804DCFFE70420ADF82200FFE711
:100C0000BDF82210BDF826000843ADF82600BDF857
:100C1000240001300B99088446E00A98C0884BF6FE
:100C2000FF7188420AD1FFE707980A99096801EB2A
:100C30004101B0FBF1F0ADF822000FE007980A99EE
:100C4000096819225143B0FBF1F0ADF82200BDF85C
:100C5000220040F48040ADF82200FFE7BDF82200FA
:100C6000000538B9FFE7BDF8220040F00100ADF8FB
:100C70002200FFE7BDF82200BDF82610084340F42B
:100C80000040ADF82600BDF824004FF496714843AB
:100C900044F6D351C1F26201A0FB0101012000EB37
:100CA00091100B990884FFE7BDF826000B99888303
:100CB0000B99088840F0010008800B980088ADF877
:100CC0002600BDF826004FF6F5310840ADF82600A5
:100CD0000A99888849890143BDF826000843ADF880
:100CE0002600BDF826000B9908800A998889098991
:100CF00008430B9908810CB080BD000080B584B01A
:100D0000ADF80E000291ADF8062045F20040C4F2A5
:100D100000000121FFF7F0FEFFE745F20040C4F2BA
:100D200000000121C0F20301FFF7A6FE08B9FFE7AA
:100D3000F3E79DF80E1045F20040C4F200000022D7
:100D400000F040F8FFE745F20040C4F200008221C5
:100D5000C0F20701FFF790FE08B9FFE7F3E70020B4
:100D60008DF80500FFE79DF80500BDF806108842E4
:100D70001EDAFFE702989DF80510415C45F200403D
:100D8000C4F2000000F03CF8FFE745F20040C4F276
:100D900000008421C0F20701FFF76EFE08B9FFE7EB
:100DA000F3E7FFE79DF8050001308DF80500DAE76D
:100DB00045F20040C4F200000121FFF7B3FE04B089
:100DC00080BD000082B001908DF803108DF80220E4
:100DD0009DF8020038B1FFE79DF8030040F00100E4
:100DE0008DF8030006E09DF8030000F0FE008DF88A
:100DF0000300FFE79DF803000199088202B07047E5
:100E000082B001908DF803109DF8030001990882CB
:100E100002B0704780B582B0802000F077F80020E3
:100E20008DF80700FFE79DF807003B280ADCFFE785
:100E3000202000F09BF8FFE79DF8070001308DF8B7
:100E40000700F0E702B080BD80B584B03220FFF724
:100E5000B5FC3020019000F059F80520FFF7AEFCFA
:100E6000019800F053F801200390FFF7A7FC0198C8
:100E700000F04CF80A200290FFF7A0FC202000F0C0
:100E800045F80298FFF79AFC282000F03FF80398F5
:100E9000FFF794FC082000F039F80398FFF78EFC68
:100EA000039800F033F80398FFF788FC062000F061
:100EB0002DF80398FFF782FC0C2000F027F804B00F
:100EC00080BD000080B582B08DF807008DF8061057
:100ED0009DF8070038B9FFE79DF8060040F0800054
:100EE0008DF806000CE09DF80700012807D1FFE708
:100EF0009DF8060040F0C0008DF80600FFE7FFE710
:100F00009DF8060000F002F802B080BD80B582B006
:100F10008DF807009DF8070000F0F0008DF806003E
:100F20009DF8070000018DF805009DF8060040F0CF
:100F30000C008DF801009DF8060040F008008DF8C7
:100F400002009DF8050040F00C008DF803009DF8AC
:100F5000050040F008008DF804004E200DF101015D
:100F60000422FFF7CBFE02B080BD000080B582B046
:100F70008DF807009DF8070000F0F0008DF80600DE
:100F80009DF8070000018DF805009DF8060040F06F
:100F90000D008DF801009DF8060040F009008DF865
:100FA00002009DF8050040F00D008DF803009DF84B
:100FB000050040F009008DF804004E200DF10101FC
:100FC0000422FFF79BFE02B080BD000080B582B016
:100FD0000190FFE70198007838B1FFE70198411CC4
:100FE00001910078FFF7C2FFF4E702B080BD000076
:100FF00082B001908DF803109DF8030048B1FFE71F
:10100000019A41F21C01C4F2020108681043086011
:1010100008E0019A41F21C01C4F202010868904301
:101020000860FFE702B0704782B001908DF80310AE
:101030009DF8030048B1FFE7019A41F21801C4F29C
:10104000020108681043086008E0019A41F21801A3
:10105000C4F20201086890430860FFE702B07047DD
:1010600086B005900020049003900290019041F218
:101070000400C4F20200006800F00C000490049820
:10108000009040B1FFE7009804280BD0FFE70098DC
:1010900008280ED047E0059941F20020C0F27A00FE
:1010A000086047E0059941F20020C0F27A0008602C
:1010B00040E041F20400C4F20200016801F4701142
:1010C0000391006800F4803002900399022000EB45
:1010D00091400390029848B9FFE7039840F6001149
:1010E000C0F23D014843059908601BE041F204004D
:1010F000C4F2020000688003002809D5FFE70398C6
:1011000040F60011C0F23D0148430599086008E02F
:10111000039841F20021C0F27A0148430599086022
:10112000FFE7FFE706E0059941F20020C0F27A00F0
:101130000860FFE741F20400C4F20200016801F018
:10114000F0010491049909090491049A42F24C01B6
:10115000C0F600018A5C0192059B1A68DDF804C0A4
:1011600022FA0CF25A60026802F4E0620492049AD5
:10117000120A0492049A8A5C0192059B5A68DDF86F
:1011800004C022FA0CF29A60026802F460520492DF
:10119000049AD20A0492049A895C0191059A5168D2
:1011A000019BD940D160006800F44040049004984D
:1011B000800B0490049942F24800C0F60000405CA5
:1011C00001900599C868019AB0FBF2F0086106B079
:1011D0007047000080B582B000208DF80700FFE75F
:1011E0009DF80700072843DCFFE7FFE740F6000013
:1011F000C4F201000121FFF711FC08B9FFE7F5E790
:101200003220FFF7F7FA40F60000C4F20100012196
:10121000FFF704FC68B9FFE79DF80700C0F107017C
:10122000012000FA01F19DF8060088438DF80600C0
:101230000CE09DF80700C0F10701012000FA01F160
:101240009DF8060008438DF80600FFE7FFE740F62B
:101250000000C4F201000121FFF7E0FB08B1FFE745
:10126000F5E7FFE79DF8070001308DF80700B7E7C5
:101270009DF8060002B080BD80B582B040F6000047
:10128000C4F20100009001210191FFF7E1FB14205D
:10129000FFF794FA00980199FFF7E4FB3220FFF77B
:1012A000A9FA02B080BD000080B500F001F880BD51
:1012B00084B000200390029041F20001C4F20201C8
:1012C000086840F480300860FFE741F20000C4F293
:1012D0000200006800F4003002900398013003908F
:1012E000FFE702990020019039B9FFE70398B0F5B4
:1012F000A06018BF01200190FFE70198C0070028F7
:10130000E3D1FFE741F20000C4F20200006880036D
:10131000002803D5FFE70120029002E000200290A0
:10132000FFE70298012851D1FFE742F20001C4F221
:101330000201086840F010000860086820F007000B
:101340000860086840F00200086041F20401C4F23D
:10135000020100910868086008680860086840F4A5
:1013600080600860086820F47C100860086840F419
:10137000E810086041F20001C4F20201086840F080
:1013800080700860FFE741F20000C4F202000068CC
:101390008001002801D4FFE7F5E741F20401C4F21F
:1013A0000201086820F003000860086840F00200AD
:1013B0000860FFE741F20400C4F20200006800F098
:1013C0000C00082801D0FFE7F4E700E0FFE704B0D5
:1013D0007047000080B541F20002C4F202021068BA
:1013E00040F00100106041F20401C4F202010868FB
:1013F0000023CFF6FF031840086010684FF6FF7314
:10140000CFF6F66318401060106820F4802010605A
:10141000086820F4FE00086041F20801C4F20201ED
:101420004FF41F000860FFF73FFF4EF60851CEF261
:1014300000014FF00060086080BD000082B00190A4
:101440008DF803109DF8030030B1FFE7019908887B
:1014500040F00100088005E00199088820F00100B3
:101460000880FFE702B0704781B000900098808C40
:1014700001B0704782B00190ADF80210BDF80200D3
:101480000199888402B0704783B0029001910020D6
:10149000ADF8020002980088ADF80200029842F60A
:1014A0000041C4F20101884225D0FFE7029843F2CF
:1014B0000041C4F2010188421DD0FFE70298B0F15B
:1014C000804F18D0FFE7029840F20041C4F20001BB
:1014D000884210D0FFE7029840F60001C4F20001F4
:1014E000884208D0FFE7029840F60041C4F20001AC
:1014F00088420ED1FFE7BDF8020020F07000ADF881
:10150000020001984188BDF802000843ADF80200CE
:10151000FFE7029841F20001C4F20001884216D0B0
:10152000FFE7029841F20041C4F2000188420ED068
:10153000FFE7BDF8020020F44070ADF8020001980A
:10154000C188BDF802000843ADF80200FFE7BDF80E
:101550000200029908800198808802998885019884
:10156000008802990885029842F60041C4F2010100
:10157000884220D0FFE7029843F20041C4F2010103
:10158000884218D0FFE7029844F20001C4F201013A
:10159000884210D0FFE7029844F20041C4F20101F2
:1015A000884208D0FFE7029844F60001C4F2010126
:1015B000884205D1FFE70198007A02990886FFE783
:1015C00002990120888203B07047000080B584B082
:1015D000002002900390FFF777F8FFF7A7F8FFF7D6
:1015E000CFF8FFF731FC01210846FFF76BFC42F210
:1015F0009200C0F60000FFF7E9FC02980521FFF712
:1016000061FC42F2A000C0F60000FFF7DFFC41F2EF
:101610008830FFF7D3F8FFF7FDFBFFE740F20C003F
:10162000C2F200000068FFF71BF940F20800C2F2A6
:1016300000000068FFF7F2F8FFF71EFEFFF712F850
:10164000014640F20000C2F200000170007890B93B
:10165000FFE7FFE7FFF7DEFB00200221FFF732FC88
:1016600042F28500C0F60000FFF7B0FC41F288307E
:10167000FFF7A4F8EEE740F20000C2F200000078A5
:10168000022812D1FFE7FFE7FFF7C4FB0020022189
:10169000FFF718FC42F2A500C0F60000FFF796FC29
:1016A00041F28830FFF78AF8EEE7FFE7FFF792FD97
:1016B00040F20101C2F2000101910870FFF78AFDBA
:1016C00001994870FFF786FD01998870FFF782FD48
:1016D0000199C870FFF77EFD019A10711079117899
:1016E00092F801C09378D278614419441144884239
:1016F00012D0FFE7FFE7FFF78DFB00200121FFF786
:10170000E1FB42F26A00C0F60000FFF75FFC41F225
:101710008830FFF753F8EEE740F20100C2F2000014
:10172000817840F20C02C2F200021160007840F2AF
:101730000801C2F20001086040F6B830FFF73EF839
:101740006CE700000FB4084B10B504A902AA039877
:1017500000F0DEF8044602A9002000F070FC2046EC
:1017600010BC5DF814FB00003F20000802E008C830
:10177000121F08C1002AFAD170477047002001E00B
:1017800001C1121F002AFBD1704700002DE9FF5F45
:1017900082B00021DDE90430020DDDF840B00343E2
:1017A00018D044F61050A2F2FF324243151411989B
:1017B00001281FD0A5EB0B00401C5FEA000A4FF088
:1017C00000064E4FDFF83891B046504615D5CAF1A5
:1017D000000413E0119801244AA3012801D16FEA03
:1017E0000B010298119AC0E90031C0E9024206B02B
:1017F000BDE8F09FCBF10000DFE704460021404A3E
:10180000491842EB0450CDE9001012E0E00707D080
:1018100032463B4640464946FEF772FD80468946C1
:1018200032463B4610461946FEF76AFD06460F460D
:101830006410002CEAD1DDE90401DDE90023BAF1EE
:10184000000F06DAFEF75CFD42464B46FEF758FDF8
:1018500005E0FEF7C7FD42464B46FEF7C3FD0446D2
:101860000E460022284BFEF745FE03D84FF0FF300E
:10187000014607E00022254B20463146FEF799FC41
:10188000FEF71FFE102409E0002C0ADB0A220023C9
:10189000FEF75EFC039B30321A55641E50EA0102CB
:1018A000F2D1641C039AC4F111031444119A012A61
:1018B00003D0012208430DD10AE0084304D00020E0
:1018C0004FF0110B119072E7A3EB0B056D1E0DE0AD
:1018D0005B4504DD4FF0000205F1010504E003DA89
:1018E0004FF00002A5F10105002AECD002981199F1
:1018F000C0E90231C0E9004579E70000000014406A
:101900000000F03F300000000000F0430000E03F26
:101910002DE9FF4F95B09B468946064600250FE20C
:10192000252877D100242746F84A0121059400E0B4
:10193000044316F8013F203B01FA03F01042F7D1AF
:1019400030782A2811D06FF02F033078A0F13002C0
:10195000092A16D8059A44F0020402EB820203EB2E
:1019600042021044761C0590EFE759F8042B0592CB
:10197000002A03DA504244F40054059044F0020473
:10198000761C30782E2816D116F8010F44F0040486
:101990002A280DD06FF02F023078A0F13003092BE8
:1019A00009D807EB870302EB4303C718761CF3E75C
:1019B00059F8047B761C30786C280FD006DC4C2854
:1019C00017D068280DD06A2814D104E0742810D0EC
:1019D0007A280FD10DE044F400140AE044F4801496
:1019E00001E044F440147278824202D104F580147C
:1019F000761C761C307866280BD013DC582877D0FC
:101A000009DC002875D04528F6D04628F4D04728B0
:101A10001AD19DE118E0632835D0642879D0652873
:101A200012D195E1702873D008DC6728F1D06928BD
:101A30006FD06E280DD06F2806D1B5E073282CD05A
:101A4000752875D0782874D05A46179990476D1C20
:101A500075E1C4F30250022809D003280DD0D9F84B
:101A6000001004280DD00D6009F1040967E1D9F8D0
:101A70000010EA17C1E90052F6E7D9F800100D800E
:101A8000F2E70D70F0E719F8041B8DF80010002044
:101A90008DF80100EA46012003E059F804AB4FF04D
:101AA000FF3061074FF0000102D40DE008F10101A1
:101AB0008846B9420FDA8045F8DB1AF80810002989
:101AC000F4D108E008F1010188468142FADB1AF8F6
:101AD00008100029F6D105985B46A0EB08072146BF
:101AE0003846179A00F094FA284400EB080507E0FE
:101AF0004DE029E10DE01AF8010B5A46179990477D
:101B0000B8F10108F7D25B4621463846179A13E12F
:101B100042E00A220092C4F302524FF0000A022A65
:101B200008D059F804CB032A4FEAEC710AD00DE033
:101B300029E02AE009F1070121F00702F2E802C1D9
:101B4000914609E00FFA8CFC4FEAEC71042A03D1AC
:101B50004FFA8CFC4FEAEC71002907DA0A460021A3
:101B6000DCF1000C61EB02012D2202E0220504D51C
:101B70002B228DF80420012203E0E20701D020226D
:101B8000F7E7904659E00A2102E010220DE010210B
:101B90004FF0000A00910BE010224FF0000A44F0D1
:101BA00004040827009203E008224FF0000A009284
:101BB000C4F30252022A05D059F804CB0021032AAB
:101BC00008D009E009F1070121F00702F2E802C19B
:101BD000914605E01FFA8CFC042A01D10CF0FF0CA1
:101BE0004FF00008220728D5702806D0009B83F00C
:101BF000100353EA0A0305D00EE040228DF80420BA
:101C0000012208E05CEA010206D030228DF80420AF
:101C10008DF8050002229046009B83F0080353EAEA
:101C20000A030AD15CEA010201D1620705D530221C
:101C30008DF804204FF001087F1E582804D034A0EE
:101C400003900EA802900DE036A0F9E753466046D7
:101C5000009AFEF77DFA84460398825C0298401E43
:101C6000029002705CEA0100F0D1029806A9081AFD
:101C700000F1200A600702D524F4803400E0012737
:101C8000574502DDA7EB0A0000E0002000EB0A0147
:101C9000009005984144401A0590E00306D45B4645
:101CA0002146179A059800F0B3F90544002706E08D
:101CB00001A85A46C05D179990476D1C7F1C474587
:101CC000F6DBE0030CD55B462146179A059800F039
:101CD0009FF9054404E030205A46179990476D1C3F
:101CE0000099481E00900029F5DC08E0029802994E
:101CF0005A460078491C0291179990476D1CBAF119
:101D00000001AAF1010AF1DC65E1000009280100E7
:101D10003031323334353637383961626364656661
:101D20000000000030313233343536373839414223
:101D3000434445460000000000F058F90544761C75
:101D4000307800287FF4ECAD19B02846BDE8F08F5C
:101D5000620700D4062709F1070222F0070CFCE80D
:101D60000223E14603F000485FEA080C02D00FF2BC
:101D7000702C0DE05FEA045C02D50FF2682C07E0DE
:101D80005FEAC47C02D00FF2602C01E0AFF2700C6D
:101D90004FF0FF3823F00043CDF850C065280CD039
:101DA00006DC452809D046281DD047283DD13DE016
:101DB000662818D067287ED138E00021112F01DB7A
:101DC000112000E0781CCDE9000106A90EA8FFF75C
:101DD000DDFCDDE90F010E9A03910021009207F16D
:101DE000010A04914DE04FF000400097CDE9011049
:101DF00006A90EA8FFF7CAFCDDE90F0203920E9BAD
:101E000011990022DDF80CA00093049211B9791CFD
:101E100000EB010AB7EB0A0004D4C0F1FF3007F170
:101E2000010A0490AAEB0700019044E0012F00DAB8
:101E300001270021112F01DD112000E03846CDE9F6
:101E4000000106A90EA8FFF7A1FCDDE90F010E9A1B
:101E50000391002104910092BA4621070CD4039902
:101E6000514500DA8A46BAF1010F05DD009AAAF160
:101E70000101515C302908D0B84202DA10F1040F98
:101E800006DA0121CDE9011015E0AAF10101E9E727
:101E9000002805DC049901440491AAEB000102E04A
:101EA000411C514500DD8A460499401A401C0190AE
:101EB0004FF000400290200704D40198504501DB08
:101EC000CDF8048000208DF84F0002980DF14F07E7
:101ED000B0F1004F25D02B200E9002984FF0020851
:101EE00000280CDA404202902D200E9007E00A21D3
:101EF0000298FEF717F93031029007F8011DB8F18A
:101F00000001A8F10108F2DC02980028EFD1791E47
:101F10000E980870307800F0200040F0450007F877
:101F2000020D12A8C01B00F107081498007800B138
:101F3000012000EB0A01019801EBE0710598414492
:101F4000401A401E0590E00306D45B462146179ACE
:101F5000059800F05DF805441498007818B15A46C9
:101F6000179990476D1CE00324D55B462146179ACC
:101F7000059800F04DF805441CE00498002807DBA4
:101F8000DDE90301884203DD0098405C179901E018
:101F9000179930205A469047049805F10105401CD6
:101FA00004900198401E019004D12E205A461799A2
:101FB00090476D1CBAF10001AAF1010ADDDC05E0D1
:101FC00017F8010B5A46179990476D1CB8F100019C
:101FD000A8F10108F4DC5B462146179A0598ABE6A8
:101FE0002D0000002B000000200000002DE9F04132
:101FF000044600251E461746880404D405E03946E9
:102000002020B0476D1C641EF9D52846BDE8F0813C
:102010002DE9F041044600251E469046C80301D52F
:10202000302700E02027880404D505E041463846E3
:10203000B0476D1C641EF9D52846BDE8F0810A68DA
:10204000531C0B601070704702040608000000006B
:10205000010203040102030406070809444F20415A
:102060004D202D2025642000250057524F4E47203B
:1020700044415441004E4849455420444F202D20AE
:1020800025642043004E4F5420524553504F4E5329
:1020900045004B494D205455414E204B49454E007B
:1020A00050544954004E4F54205245414459000069
:1020B000C020000800000020300400007C17000849
:0400000508000101ED
:00000001FF
