:020000040800F2
:100000000004002001010008090100080B0100089C
:100010000D0100080F010008110100080000000098
:1000200000000000000000000000000013010008B4
:100030001501000800000000170100081901000860
:100040001B0100081B0100081B0100081B01000820
:100050001B0100081B0100081B0100081B01000810
:100060001B0100081B0100081B0100081B01000800
:100070001B0100081B0100081B0100081B010008F0
:100080001B0100081B0100081B0100081B010008E0
:100090001B0100081B0100081B0100081B010008D0
:1000A0001B0100081B0100081B0100081B010008C0
:1000B0001B0100081B0100081B0100081B010008B0
:1000C0001B0100081B0100081B0100081B010008A0
:1000D0001B0100081B0100081B0100081B01000890
:1000E000D50100081B0100081B010008DFF80CD037
:1000F00000F018F800480047290800080004002014
:100100000648804706480047FEE7FEE7FEE7FEE7B1
:10011000FEE7FEE7FEE7FEE7FEE7FEE7C1070008B1
:10012000ED000008064C074D06E0E06840F00103D2
:1001300094E8070098471034AC42F6D3FFF7DAFF93
:10014000700800088008000880B582B008200121EE
:10015000009100F083FA0099084600F07FFA4820E9
:100160008DF807004FF4A040ADF8040003208DF88F
:10017000060040F60040C4F2010001A900F034F985
:1001800000980C2100F006F900980E2100F002F909
:1001900002B080BD83B0029000200190FFE701987B
:1001A0000299884213D2FFE700200090FFE70098F1
:1001B00042F6FE21884205DCFFE7FFE700980130A8
:1001C0000090F4E7FFE7019801300190E7E703B002
:1001D0007047000080B54FF4805000F02BF858B104
:1001E000FFE74FF4805000F01BF840F60C01C4F21A
:1001F0000101FF20086011E04FF4804000F01AF880
:1002000058B1FFE74FF4804000F00AF840F60C01C7
:10021000C4F2010100200860FFE7FFE780BD000095
:1002200081B00090009840F21441C4F201010860CE
:1002300001B0704783B0029000208DF80700009055
:1002400040F20040C4F201000068029908400090AA
:1002500040F21440C4F2010000680299084207D03D
:10026000FFE7009820B1FFE701208DF8070003E0C9
:1002700000208DF80700FFE79DF8070003B07047E6
:1002800082B001900020009040F20040C4F20100D2
:10029000009001988079002859D0FFE70198026802
:1002A00040F20041C4F201010868904308600198DF
:1002B000026840F20441C4F20101086890430860FA
:1002C000019801790098084400900198026800990B
:1002D0000868104308600198026840F20841C4F2BF
:1002E00001010868904308600198026840F20C41DF
:1002F000C4F2010108689043086001984079102811
:1003000013D1FFE70198026840F20841C4F20101ED
:100310000868104308600198026840F20C41C4F27A
:10032000010108681043086010E040F20040C4F288
:1003300001000090019841790098084400900198CC
:1003400002680099086810430860FFE70BE0019815
:1003500001790098084400900198026800990868A3
:1003600090430860FFE702B07047000080B582B09C
:100370004FF4A040009000208DF804000C208DF870
:10038000050001208DF806006846FFF779FF02B0EE
:1003900080BD000082B08DF807008DF806100020A7
:1003A00000909DF8060000F0030081000F208840B7
:1003B0000090009B9DF8060000F0FC010822C4F2AA
:1003C00001028858984388509DF807109DF8060050
:1003D00000F003039B0001FA03F300F0FC018858CE
:1003E0001843885002B0704788B0079006910020EB
:1003F0000590049003900290019000900698C078B8
:1004000000F00F0005900698C078C006002806D5B9
:10041000FFE706988178059808430590FFE706985E
:10042000007800284BD0FFE7079800680190002073
:100430000390FFE7039807283DD8FFE703990120C1
:100440008840029006980088029908400490049819
:10045000029988422AD1FFE703988000029002990E
:100460000F208840009000990198884301900598DA
:10047000029900FA01F10198084301900698C078AA
:10048000282806D1FFE70399012088400799486191
:100490000BE00698C078482806D1FFE703990120B1
:1004A000884007990861FFE7FFE7FFE7FFE7039848
:1004B00001300390BEE7019807990860FFE70698AE
:1004C0000088B0F5807F50DBFFE707984068019017
:1004D00000200390FFE70398072842D8FFE703981E
:1004E00000F10801012088400290069800880299D6
:1004F000084004900498029988422DD1FFE70398A0
:100500008000029002990F20884000900099019885
:10051000884301900598029900FA01F10198084377
:1005200001900698C078282808D1FFE7039800F1C9
:1005300008010120884007994861FFE70698C078C4
:10054000482808D1FFE7039800F1080101208840FE
:1005500007990861FFE7FFE7FFE703980130039081
:10056000B9E7019807994860FFE708B070470000B5
:1005700080B50420012100F071F840F60001C4F2BA
:1005800001014FF03330086080BD000080B582B0BB
:1005900028208DF8040000208DF805008DF8060055
:1005A00001208DF8070001A800F002F802B080BD1C
:1005B00084B003900020029001900F2000900398D7
:1005C000C078C0B3FFE74EF60C50CEF200000068D2
:1005D000C043C0F3022002900298C0F104000190D1
:1005E00000980299C840009003984078019988408B
:1005F0000290039880780099014002980843029085
:100600000298000102900298039909784EF2004284
:10061000CEF2000288540398027802F01F010120F4
:1006200088404EF20011CEF2000141EAD20121F0E1
:10063000030108600FE00398027802F01F01012017
:1006400088404EF28011CEF2000141EAD20121F041
:1006500003010860FFE704B07047000082B001901A
:100660008DF803109DF8030048B1FFE7019A41F2AD
:100670001801C4F2020108681043086008E0019AFA
:1006800041F21801C4F20201086890430860FFE7D4
:1006900002B0704780B500F001F880BD84B0002042
:1006A0000390029041F20001C4F20201086840F494
:1006B00080300860FFE741F20000C4F202000068E9
:1006C00000F400300290039801300390FFE7029994
:1006D0000020019039B9FFE70398B0F5A06018BF7A
:1006E00001200190FFE70198C0070028E3D1FFE750
:1006F00041F20000C4F2020000688003002803D524
:10070000FFE70120029002E000200290FFE702983C
:10071000012851D1FFE742F20001C4F2020108684A
:1007200040F010000860086820F0070008600868C2
:1007300040F00200086041F20401C4F2020100919D
:100740000868086008680860086840F4806008600D
:10075000086820F47C100860086840F4E81008601D
:1007600041F20001C4F20201086840F080700860A4
:10077000FFE741F20000C4F2020000688001002897
:1007800001D4FFE7F5E741F20401C4F20201086871
:1007900020F003000860086840F002000860FFE7EE
:1007A00041F20400C4F20200006800F00C000828C6
:1007B00001D0FFE7F4E700E0FFE704B07047000076
:1007C00080B541F20002C4F20202106840F001005C
:1007D000106041F20401C4F2020108680023CFF660
:1007E000FF031840086010684FF6FF73CFF6F663FA
:1007F00018401060106820F480201060086820F411
:10080000FE00086041F20801C4F202014FF41F002B
:100810000860FFF73FFF4EF60851CEF200014FF09F
:100820000060086080BD000080B582B000200190AB
:10083000FFF79EFEFFF788FCFFF798FDFFF7A6FE87
:10084000FFE748F2A060C0F20100FFF7A3FCF8E761
:1008500002E008C8121F08C1002AFAD17047704789
:10086000002001E001C1121F002AFBD170470000E7
:100870008008000800000020000400006008000854
:0400000508000101ED
:00000001FF
