:020000040800F2
:100000000004002001010008090100080B0100089C
:100010000D0100080F010008110100080000000098
:1000200000000000000000000000000013010008B4
:100030001501000800000000170100081901000860
:100040001B0100081B0100081B0100081B01000820
:100050001B0100081B0100081B0100081B01000810
:100060001B0100081B0100081B0100081B01000800
:100070001B0100081B0100081B0100081B010008F0
:100080001B0100081B0100081B0100081B010008E0
:100090001B0100081B0100081B0100081B010008D0
:1000A0001B0100081B0100081B0100081B010008C0
:1000B0001B0100081B0100081B0100081B010008B0
:1000C0001B0100081B0100081B0100081B010008A0
:1000D0001B0100081B0100081B0100081B01000890
:1000E0001B0100081B0100081B010008DFF80CD0F1
:1000F00000F018F800480047450A000800040020F6
:100100000648804706480047FEE7FEE7FEE7FEE7B1
:10011000FEE7FEE7FEE7FEE7FEE7FEE7D1020008A6
:10012000ED000008064C074D06E0E06840F00103D2
:1001300094E8070098471034AC42F6D3FFF7DAFF93
:10014000780A0008880A000881B041F21801C4F258
:100150000201086880000130086040F60001C4F226
:1001600001014BF6BB30086001B0704782B00190CE
:100170008DF803109DF8030048B1FFE7019A41F2A2
:100180001C01C4F2020108681043086008E0019AEB
:1001900041F21C01C4F20201086890430860FFE7C5
:1001A00002B0704780B500F001F880BD84B0002037
:1001B0000390029041F20001C4F20201086840F489
:1001C00080300860FFE741F20000C4F202000068DE
:1001D00000F400300290039801300390FFE7029989
:1001E0000020019039B9FFE70398B0F5A06018BF6F
:1001F00001200190FFE70198C0070028E3D1FFE745
:1002000041F20000C4F2020000688003002803D518
:10021000FFE70120029002E000200290FFE7029831
:10022000012851D1FFE742F20001C4F2020108683F
:1002300040F010000860086820F0070008600868B7
:1002400040F00200086041F20401C4F20201009192
:100250000868086008680860086840F48060086002
:10026000086820F47C100860086840F4E810086012
:1002700041F20001C4F20201086840F08070086099
:10028000FFE741F20000C4F202000068800100288C
:1002900001D4FFE7F5E741F20401C4F20201086866
:1002A00020F003000860086840F002000860FFE7E3
:1002B00041F20400C4F20200006800F00C000828BB
:1002C00001D0FFE7F4E700E0FFE704B0704700006B
:1002D00080B541F20002C4F20202106840F0010051
:1002E000106041F20401C4F2020108680023CFF655
:1002F000FF031840086010684FF6FF73CFF6F663EF
:1003000018401060106820F480201060086820F405
:10031000FE00086041F20801C4F202014FF41F0020
:100320000860FFF73FFF4EF60851CEF200014FF094
:100330000060086080BD000082B001908DF803105D
:100340009DF8030030B1FFE70199088840F00100F3
:10035000088005E00199088820F001000880FFE787
:1003600002B0704784B0039002910020ADF80600FF
:10037000ADF80400ADF802000399088C20F00100EC
:1003800008840398008CADF8040003988088ADF8C9
:1003900002000398008BADF80600BDF8060020F0BF
:1003A0007000ADF80600BDF8060020F00300ADF8BF
:1003B000060002980188BDF806000843ADF8060063
:1003C000BDF8040020F00200ADF804000298018995
:1003D000BDF804000843ADF8040002984188BDF858
:1003E00004000843ADF80400039842F60041C4F24B
:1003F0000101884220D0FFE7039843F20041C4F294
:100400000101884218D0FFE7039844F20001C4F2CA
:100410000101884210D0FFE7039844F20041C4F282
:100420000101884208D0FFE7039844F60001C4F2B6
:100430000101884235D1FFE7BDF8040020F0080033
:10044000ADF8040002984189BDF804000843ADF8F6
:100450000400BDF8040020F00400ADF80400029888
:100460008188BDF804000843ADF80400BDF802001F
:1004700020F48070ADF80200BDF8020020F4007096
:10048000ADF8020002988189BDF802000843ADF87A
:1004900002000298C189BDF802000843ADF80200CD
:1004A000FFE7BDF8020003998880BDF806000399B4
:1004B00008830298C08803998886BDF804000399D0
:1004C000088404B07047000084B0039002910020BB
:1004D000ADF80600ADF80400ADF802000399088CF1
:1004E00020F0100008840398008CADF804000398F5
:1004F0008088ADF802000398008BADF80600BDF8C7
:10050000060020F4E040ADF80600BDF8060020F437
:100510004070ADF8060002980188BDF8060040EA78
:100520000120ADF80600BDF8040020F02000ADF871
:10053000040002980189BDF8040040EA0110ADF8FA
:10054000040002984188BDF8040040EA0110ADF8AB
:100550000400039842F60041C4F20101884208D029
:10056000FFE7039843F20041C4F20101884239D108
:10057000FFE7BDF8040020F08000ADF80400029809
:100580004189BDF8040040EA0110ADF80400BDF84F
:10059000040020F04000ADF8040002988188BDF806
:1005A000040040EA0110ADF80400BDF8020020F498
:1005B0008060ADF80200BDF8020020F40060ADF8E4
:1005C000020002988189BDF8020040EA8100ADF87E
:1005D00002000298C189BDF8020040EA8100ADF82E
:1005E0000200FFE7BDF8020003998880BDF806000D
:1005F000039908830298C08803990887BDF804000E
:100600000399088404B0704784B0039002910020DD
:10061000ADF80600ADF80400ADF802000399088CAF
:1006200020F4807008840398008CADF804000398CF
:100630008088ADF802000398808BADF80600BDF805
:10064000060020F07000ADF80600BDF8060020F0AE
:100650000300ADF8060002980188BDF806000843C3
:10066000ADF80600BDF8040020F40070ADF80400F9
:1006700002980189BDF8040040EA0120ADF80400A9
:1006800002984188BDF8040040EA0120ADF804005A
:10069000039842F60041C4F20101884208D0FFE706
:1006A000039843F20041C4F20101884239D1FFE7C7
:1006B000BDF8040020F40060ADF804000298418900
:1006C000BDF8040040EA0120ADF80400BDF80400C4
:1006D00020F48060ADF8040002988188BDF8040021
:1006E00040EA0120ADF80400BDF8020020F480507B
:1006F000ADF80200BDF8020020F40050ADF8020091
:1007000002988189BDF8020040EA0110ADF80200AC
:100710000298C189BDF8020040EA0110ADF802005C
:10072000FFE7BDF8020003998880BDF80600039931
:1007300088830298C08803998887BDF804000399CC
:10074000088404B07047000084B003900291002038
:10075000ADF80600ADF80400ADF802000399088C6E
:1007600020F4805008840398008CADF804000398AE
:100770008088ADF802000398808BADF80600BDF8C4
:10078000060020F4E040ADF80600BDF8060020F4B5
:100790004070ADF8060002980188BDF8060040EAF6
:1007A0000120ADF80600BDF8040020F40050ADF8BB
:1007B000040002980189BDF8040040EA0130ADF858
:1007C000040002984188BDF8040040EA0130ADF809
:1007D0000400039842F60041C4F20101884208D0A7
:1007E000FFE7039843F20041C4F2010188420FD1B0
:1007F000FFE7BDF8020020F48040ADF80200029847
:100800008189BDF8020040EA8110ADF80200FFE7DF
:10081000BDF8020003998880BDF80600039988831B
:100820000298C0880399A1F84000BDF8040003991C
:10083000088404B07047000083B00290019100204A
:10084000ADF8020002980088ADF80200029842F666
:100850000041C4F20101884225D0FFE7029843F22B
:100860000041C4F2010188421DD0FFE70298B0F1B7
:10087000804F18D0FFE7029840F20041C4F2000117
:10088000884210D0FFE7029840F60001C4F2000150
:10089000884208D0FFE7029840F60041C4F2000108
:1008A00088420ED1FFE7BDF8020020F07000ADF8DD
:1008B000020001984188BDF802000843ADF802002B
:1008C000FFE7029841F20001C4F20001884216D00D
:1008D000FFE7029841F20041C4F2000188420ED0C5
:1008E000FFE7BDF8020020F44070ADF80200019867
:1008F000C188BDF802000843ADF80200FFE7BDF86B
:1009000002000299088001988088029988850198E0
:10091000008802990885029842F60041C4F201015C
:10092000884220D0FFE7029843F20041C4F201015F
:10093000884218D0FFE7029844F20001C4F2010196
:10094000884210D0FFE7029844F20041C4F201014E
:10095000884208D0FFE7029844F60001C4F2010182
:10096000884205D1FFE70198007A02990886FFE7DF
:1009700002990120888203B07047000080B58CB0D6
:10098000012102910846FFF7F1FB6320ADF8280032
:100990004720ADF82400002001908DF82C00ADF820
:1009A00026004FF08040039009A9FFF745FF029908
:1009B0000398FFF7C1FC019A029903986023009302
:1009C000ADF81430ADF81C204622ADF81A20ADF871
:1009D000161005A90491FFF7C5FCDDF800C0019BC6
:1009E000029A03980499ADF814C0ADF81C3028237E
:1009F000ADF81A30ADF81620FFF766FDDDF800C03F
:100A0000019B029A03980499ADF814C0ADF81C300C
:100A10003223ADF81A30ADF81620FFF7F5FDDDF8FA
:100A200000C0019B029A03980499ADF814C0ADF878
:100A30001C304B23ADF81A30ADF81620FFF784FEBA
:100A40000CB080BD80B582B000200190FFF77CFB28
:100A5000FFF794FFFFE7FEE702E008C8121F08C196
:100A6000002AFAD170477047002001E001C1121F2F
:100A7000002AFBD170470000880A0008000000200F
:080A800000040000680A0008F0
:0400000508000101ED
:00000001FF
