:020000040800F2
:100000000004002001010008090100080B0100089C
:100010000D0100080F010008110100080000000098
:1000200000000000000000000000000013010008B4
:100030001501000800000000170100081901000860
:100040001B0100081B0100081B0100081B01000820
:100050001B0100081B0100081B0100081B01000810
:100060001B0100081B0100081B0100081B01000800
:100070001B0100081B0100081B0100081B010008F0
:100080001B0100081B0100081B0100081B010008E0
:100090001B0100081B0100081B0100081B010008D0
:1000A0001B0100081B0100081B0100081B010008C0
:1000B000690300081B0100081B0100081B01000860
:1000C0001B0100081B0100081B0100081B010008A0
:1000D0001B0100081B0100081B0100081B01000890
:1000E0001B0100081B0100081B010008DFF80CD0F1
:1000F00000F018F80048004711060008000400202E
:100100000648804706480047FEE7FEE7FEE7FEE7B1
:10011000FEE7FEE7FEE7FEE7FEE7FEE70103000875
:10012000ED000008064C074D06E0E06840F00103D2
:1001300094E8070098471034AC42F6D3FFF7DAFF93
:10014000440600085406000880B50420012100F090
:1001500025F840F60001C4F201014FF03330086089
:1001600080BD000082B001908DF803109DF803005F
:1001700048B1FFE7019A41F21C01C4F2020108688C
:100180001043086008E0019A41F21C01C4F2020128
:10019000086890430860FFE702B0704782B00190A2
:1001A0008DF803109DF8030048B1FFE7019A41F272
:1001B0001801C4F2020108681043086008E0019ABF
:1001C00041F21801C4F20201086890430860FFE799
:1001D00002B0704780B500F001F880BD84B0002007
:1001E0000390029041F20001C4F20201086840F459
:1001F00080300860FFE741F20000C4F202000068AE
:1002000000F400300290039801300390FFE7029958
:100210000020019039B9FFE70398B0F5A06018BF3E
:1002200001200190FFE70198C0070028E3D1FFE714
:1002300041F20000C4F2020000688003002803D5E8
:10024000FFE70120029002E000200290FFE7029801
:10025000012851D1FFE742F20001C4F2020108680F
:1002600040F010000860086820F007000860086887
:1002700040F00200086041F20401C4F20201009162
:100280000868086008680860086840F480600860D2
:10029000086820F47C100860086840F4E8100860E2
:1002A00041F20001C4F20201086840F08070086069
:1002B000FFE741F20000C4F202000068800100285C
:1002C00001D4FFE7F5E741F20401C4F20201086836
:1002D00020F003000860086840F002000860FFE7B3
:1002E00041F20400C4F20200006800F00C0008288B
:1002F00001D0FFE7F4E700E0FFE704B0704700003B
:1003000080B541F20002C4F20202106840F0010020
:10031000106041F20401C4F2020108680023CFF624
:10032000FF031840086010684FF6FF73CFF6F663BE
:1003300018401060106820F480201060086820F4D5
:10034000FE00086041F20801C4F202014FF41F00F0
:100350000860FFF73FFF4EF60851CEF200014FF064
:100360000060086080BD000080B54FF08040012132
:1003700000F034F848B1FFE740F60C01C4F2010187
:10038000086880F0FF000860FFE74FF0804001211F
:1003900000F002F880BD000082B00190ADF80210BC
:1003A000BDF80200C0430199088202B07047000006
:1003B00082B001908DF803109DF8030030B1FFE783
:1003C0000199088840F00100088005E0019908883B
:1003D00020F001000880FFE702B0704783B0029070
:1003E000ADF8061000208DF80500ADF80200ADF85C
:1003F00000000298008ABDF806100840ADF802001F
:1004000002988089BDF806100840ADF80000BDF8DC
:10041000020040B1FFE7BDF8000020B1FFE7012076
:100420008DF8050003E000208DF80500FFE79DF83A
:10043000050003B07047000082B00190ADF80210D3
:100440008DF801209DF8010038B1FFE7BDF80220CA
:10045000019988891043888106E0BDF8022001993E
:10046000888990438881FFE702B0704783B002908B
:1004700001910020ADF8020002980088ADF802005A
:10048000029842F60041C4F20101884225D0FFE7FC
:10049000029843F20041C4F2010188421DD0FFE7F7
:1004A0000298B0F1804F18D0FFE7029840F2004167
:1004B000C4F20001884210D0FFE7029840F6000124
:1004C000C4F20001884208D0FFE7029840F60041DC
:1004D000C4F2000188420ED1FFE7BDF8020020F00F
:1004E0007000ADF8020001984188BDF80200084391
:1004F000ADF80200FFE7029841F20001C4F20001EA
:10050000884216D0FFE7029841F20041C4F2000190
:1005100088420ED0FFE7BDF8020020F44070ADF82D
:1005200002000198C188BDF802000843ADF802003E
:10053000FFE7BDF8020002990880019880880299BF
:1005400088850198008802990885029842F6004142
:10055000C4F20101884220D0FFE7029843F2004133
:10056000C4F20101884218D0FFE7029844F200016A
:10057000C4F20101884210D0FFE7029844F2004122
:10058000C4F20101884208D0FFE7029844F6000156
:10059000C4F20101884205D1FFE70198007A02996F
:1005A0000886FFE702990120888203B070470000A7
:1005B00080B588B0012103910846FFF7D3FD42F2D0
:1005C0000F70ADF8180040F60F60ADF81400002071
:1005D00001908DF81C00ADF816004FF0804002909D
:1005E00005A9FFF743FF0298039A1146FFF724FF7E
:1005F000019A029803991C238DF810308DF8112070
:100600008DF812208DF81310FFF7D2FE08B080BDD0
:1006100080B582B000200190FFF796FDFFF7C8FF7C
:10062000FFE7FEE702E008C8121F08C1002AFAD15E
:1006300070477047002001E001C1121F002AFBD162
:10064000704700005406000800000020000400006D
:040650003406000864
:0400000508000101ED
:00000001FF
