:020000040800F2
:100000007014002001010008090100080B0100081C
:100010000D0100080F010008110100080000000098
:1000200000000000000000000000000013010008B4
:100030001501000800000000170100081901000860
:100040001B0100081B0100081B0100081B01000820
:100050001B0100081B0100081B0100081B01000810
:100060001B0100081B0100081B0100081B01000800
:100070001B0100081B0100081B0100081B010008F0
:100080001B0100081B0100081B0100081B010008E0
:100090001B0100081B0100081B0100081B010008D0
:1000A0001B0100081B0100081B0100081B010008C0
:1000B0001B0100081B0100081B0100081B010008B0
:1000C0001B0100081B0100081B0100081B010008A0
:1000D0001B0100081B0100081B0100081B01000890
:1000E0001B0100081B0100081B010008DFF80CD0F1
:1000F00000F06AF8004800478D0C000870140020DA
:100100000648804706480047FEE7FEE7FEE7FEE7B1
:10011000FEE7FEE7FEE7FEE7FEE7FEE7CD090008A3
:10012000ED00000840EA01039B0703D009E008C97D
:10013000121F08C0042AFAD203E011F8013B00F8AC
:10014000013B521EF9D27047421C10F8011B0029D6
:10015000FBD1801A704710B5002200E0521C835C6E
:100160008C5CA34201D1002BF8D1D8B2E1B2401A85
:1001700010BD034611F8012B00F8012B002AF9D11C
:100180001846704770B50F4D00B92868002412E07A
:100190000A4602E09E4203D0521C1378002BF9D18C
:1001A000DAB2224305D02BB124B1002100F8011BA3
:1001B00004E00446401C0678002EE9D12860204661
:1001C00070BD000000000020064C074D06E0E0680E
:1001D00040F0010394E8070098471034AC42F6D38E
:1001E000FFF788FF041000082410000880B586B0CF
:1001F00004200190012100F01BF94FF40070ADF8CC
:10020000140018208DF81700032002908DF81600B6
:1002100040F60000C4F20100039005A9049100F02B
:1002200043F8019B029A039804994FF4806CADF84F
:1002300014C08DF817308DF8162000F035F8029AAA
:1002400003980499C023ADF8143048238DF8173073
:100250008DF8162000F028F806B080BD80B586B075
:100260004FF480400121019100F0E2F84FF4165064
:1002700002900020ADF814000C21ADF81210ADF87A
:100280001000ADF80E00ADF80C0043F60000C4F20B
:100290000100009002A900F017FC0098019900F0FD
:1002A000DBFB06B080BD000088B0079006910020FF
:1002B0000590049003900290019000900698C078F9
:1002C00000F00F0005900698C078C006002806D5FB
:1002D000FFE706988178059808430590FFE70698A0
:1002E000007800284BD0FFE70798006801900020B5
:1002F0000390FFE7039807283DD8FFE70399012003
:10030000884002900698008802990840049004985A
:10031000029988422AD1FFE703988000029002994F
:100320000F2088400090009901988843019005981B
:10033000029900FA01F10198084301900698C078EB
:10034000282806D1FFE703990120884007994861D2
:100350000BE00698C078482806D1FFE703990120F2
:10036000884007990861FFE7FFE7FFE7FFE7039889
:1003700001300390BEE7019807990860FFE70698EF
:100380000088B0F5807F50DBFFE707984068019058
:1003900000200390FFE70398072842D8FFE703985F
:1003A00000F1080101208840029006980088029917
:1003B000084004900498029988422DD1FFE70398E1
:1003C0008000029002990F208840009000990198C7
:1003D000884301900598029900FA01F101980843B9
:1003E00001900698C078282808D1FFE7039800F10B
:1003F00008010120884007994861FFE70698C07806
:10040000482808D1FFE7039800F10801012088403F
:1004100007990861FFE7FFE7FFE7039801300390C2
:10042000B9E7019807994860FFE708B070470000F6
:1004300082B001908DF803109DF8030048B1FFE7EA
:10044000019A41F21801C4F20201086810430860E1
:1004500008E0019A41F21801C4F2020108689043D1
:100460000860FFE702B0704786B005900020049056
:1004700003900290019041F20400C4F2020000686F
:1004800000F00C0004900498009040B1FFE7009841
:1004900004280BD0FFE7009808280ED047E0059904
:1004A00041F20020C0F27A00086047E0059941F26D
:1004B0000020C0F27A00086040E041F20400C4F27B
:1004C0000200016801F470110391006800F48030AB
:1004D00002900399022000EB91400390029848B9E2
:1004E000FFE7039840F60011C0F23D01484305992B
:1004F00008601BE041F20400C4F2020000688003BF
:10050000002809D5FFE7039840F60011C0F23D012D
:1005100048430599086008E0039841F20021C0F2C1
:100520007A01484305990860FFE7FFE706E005996F
:1005300041F20020C0F27A000860FFE741F20400B7
:10054000C4F20200016801F0F00104910499090964
:100550000491049A40F6A871C0F600018A5C0192E9
:10056000059B1A68DDF804C022FA0CF25A60026892
:1005700002F4E0620492049A120A0492049A8A5CD9
:100580000192059B5A68DDF804C022FA0CF29A60C9
:10059000026802F460520492049AD20A0492049A05
:1005A000895C0191059A5168019BD940D16000682E
:1005B00000F4404004900498800B0490049940F6A5
:1005C000A470C0F60000405C01900599C868019ACB
:1005D000B0FBF2F0086106B07047000080B582B051
:1005E0000190FFE70198007838B1FFE70198411CBE
:1005F0000191007800F004F8F4E702B080BD00003B
:1006000080B582B08DF807009DF8071043F6000012
:10061000C4F2010000F00EFBFFE743F60000C4F255
:100620000100802100F02EFA08B9FFE7F5E702B0DB
:1006300080BD000080B500F001F880BD84B00020CE
:100640000390029041F20001C4F20201086840F4F4
:1006500080300860FFE741F20000C4F20200006849
:1006600000F400300290039801300390FFE70299F4
:100670000020019039B9FFE70398B0F5A06018BFDA
:1006800001200190FFE70198C0070028E3D1FFE7B0
:1006900041F20000C4F2020000688003002803D584
:1006A000FFE70120029002E000200290FFE702989D
:1006B000012851D1FFE742F20001C4F202010868AB
:1006C00040F010000860086820F007000860086823
:1006D00040F00200086041F20401C4F202010091FE
:1006E0000868086008680860086840F4806008606E
:1006F000086820F47C100860086840F4E81008607E
:1007000041F20001C4F20201086840F08070086004
:10071000FFE741F20000C4F20200006880010028F7
:1007200001D4FFE7F5E741F20401C4F202010868D1
:1007300020F003000860086840F002000860FFE74E
:1007400041F20400C4F20200006800F00C00082826
:1007500001D0FFE7F4E700E0FFE704B070470000D6
:1007600080B5BEB03D9000203C90FFE73C983D999D
:10077000884280F28F80FFE73D9801383B90FFE789
:100780003B983C998842C0F28080FFE73B9940F259
:10079000C800C2F20000079000EB8100FFF7D4FC14
:1007A0000146079808913C9900EB8100FFF7CCFCCB
:1007B00001460898884235D0FFE73B9940F2C800CF
:1007C000C2F20000059000EB8100FFF7BDFC01467E
:1007D000059806913C9900EB8100FFF7B5FC0146B6
:1007E000069888421DD2FFE73B9940F2C800C2F24A
:1007F0000000049000EB810122A80390FFF7B9FCF0
:1008000004993B9801EB80003C9A01EB8201FFF7D1
:10081000B0FC039904983C9A00EB8200FFF7A9FC16
:10082000FFE72DE03B9840F2C801C2F2000101EB66
:1008300080003C9A01EB8201FFF78DFCB0F1FF3F95
:100840001DDCFFE73B9940F2C800C2F200000290B5
:1008500000EB810109A80190FFF78BFC02993B98FE
:1008600001EB80003C9A01EB8201FFF782FC0199C9
:1008700002983C9A00EB8200FFF77BFCFFE7FFE762
:10088000FFE73B9801383B907AE7FFE73C9801305F
:100890003C906BE73EB080BD80B5BEB03D9000207F
:1008A0003C90FFE73C983D99884280F28D80FFE7BD
:1008B0003D9801383B90FFE73B983C9988427EDBAE
:1008C000FFE73B9940F2C800C2F20000079000EB3E
:1008D0008100FFF739FC0146079808913C9900EB2D
:1008E0008100FFF731FC01460898884235D0FFE7C8
:1008F0003B9940F2C800C2F20000059000EB810075
:10090000FFF722FC0146059806913C9900EB810017
:10091000FFF71AFC0146069888421DD9FFE73B996C
:1009200040F2C800C2F20000049000EB810122A84E
:100930000390FFF71EFC04993B9801EB80003C9A62
:1009400001EB8201FFF715FC039904983C9A00EB38
:100950008200FFF70EFCFFE72CE03B9840F2C80155
:10096000C2F2000101EB80003C9A01EB8201FFF72B
:10097000F2FB01281DDBFFE73B9940F2C800C2F201
:100980000000029000EB810109A80190FFF7F1FB44
:1009900002993B9801EB80003C9A01EB8201FFF742
:1009A000E8FB019902983C9A00EB8200FFF7E1FB1B
:1009B000FFE7FFE7FFE73B9801383B907CE7FFE765
:1009C0003C9801303C906DE73EB080BD80B541F26F
:1009D0000002C4F20202106840F00100106041F20F
:1009E0000401C4F2020108680023CFF6FF03184097
:1009F000086010684FF6FF73CFF6F663184010607A
:100A0000106820F480201060086820F4FE00086060
:100A100041F20801C4F202014FF41F000860FFF721
:100A200009FE4EF60851CEF200014FF0006008605A
:100A300080BD000082B00190ADF80210BDF8020048
:100A40008005002801D5FFE7FFE7BDF80200C0439D
:100A50000199088002B0704782B001908DF80310B0
:100A60009DF8030030B1FFE70199888940F40050F8
:100A7000888105E00199888920F400508881FFE78A
:100A800002B0704782B00190ADF8021000208DF8DE
:100A90000100BDF80200B0F5007F01D1FFE7FFE7DC
:100AA00001980088BDF802100840000420B1FFE75B
:100AB00001208DF8010003E000208DF80100FFE720
:100AC0009DF8010002B0704780B58CB00B900A9180
:100AD0000020099008900790069005900A98808958
:100AE00008B1FFE7FFE70B9805900B98008A099083
:100AF00009984CF6FF71084009900A98C188099836
:100B00000843099009980B9908820B9880890990ED
:100B100009984EF6F311084009900A9988880A89C5
:100B200010434989014309980843099009980B9992
:100B300088810B98808A099009984FF6FF410840F8
:100B400009900A98818909980843099009980B9996
:100B500088826846FFF788FC059843F60001C4F2D6
:100B60000101884203D1FFE70398089002E0029850
:100B70000890FFE70B988089000400280AD5FFE75A
:100B80000898192148430A9909684900B0FBF1F017
:100B9000079009E00898192148430A9909688900D3
:100BA000B0FBF1F00790FFE7079848F21F51C5F23C
:100BB000EB11A0FB01016FF00F0000EA510009905A
:100BC000079A09980009642100FB112006900B98F0
:100BD00080890004002810D5FFE70699322000EB39
:100BE000C10048F21F51C5F2EB11A0FB0110C0F388
:100BF00042110998084309900FE00699322000EB52
:100C0000011048F21F51C5F2EB11A0FB0110C0F317
:100C10004311099808430990FFE709980B99088147
:100C20000CB080BD81B00090009880886FF35F2089
:100C300001B0704782B00190ADF80210BDF802001B
:100C40006FF35F200199888002B0704783B00290F3
:100C500000200190FFE701980299884213D2FFE734
:100C600000200090FFE7009842F6FE21884205D858
:100C7000FFE7FFE7009801300090F4E7FFE70198F5
:100C800001300190E7E703B07047000080B5ADF692
:100C9000680D00200990CDF86408FFF7DFFAFFF730
:100CA000A5FA0A20ADF8900044F24D50C5F24E501E
:100CB000239040F6D871C0F600010DF1770015229F
:100CC0000892FFF72FFA089A40F6ED71C0F600017E
:100CD0000DF16200FFF726FA40F6B871C0F6000188
:100CE0000DF142002022FFF71DFA09980F900E9097
:100CF0000D9040F20400C2F2000041F20201C0F681
:100D00000001FFF73FFA0A90FFE70A98A8B1FFE752
:100D10000F99481C0F9040F2C800C2F2000000EB8F
:100D200081000A99FFF725FA41F20201C0F600019D
:100D30000020FFF727FA0A90E7E70F98FFF710FD6A
:100D400000200C90FFE70C980F9988423AD2FFE7F9
:100D500000200B90FFE70B9807900C9940F2C80019
:100D6000C2F2000000EB8100FFF7EEF901460798A0
:100D7000884214D2FFE70C9940F2C800C2F200008A
:100D800000EB81000B99405C0E9A511C0E910DF204
:100D90007B418854FFE70B9801300B90DBE70C9800
:100DA0000F990139884208D0FFE70E9A501C0E9027
:100DB0000DF27B412C208854FFE7FFE70C980130AF
:100DC0000C90C0E70DF27B400690FFF7BDF9069945
:100DD00002460A2088540F98FFF75EFD00200C9011
:100DE000FFE70C980F9988423AD2FFE700200B905A
:100DF000FFE70B9805900C9940F2C800C2F2000082
:100E000000EB8100FFF7A0F901460598884214D253
:100E1000FFE70C9940F2C800C2F2000000EB81002D
:100E20000B99405C0D9A511C0D910DF19201885463
:100E3000FFE70B9801300B90DBE70C980F99013915
:100E4000884208D0FFE70D9A501C0D900DF19201D9
:100E50002C208854FFE7FFE70C9801300C90C0E786
:100E60000DF192000490FFF76FF9049902460A20F1
:100E70008854FFE723A8FFF7B1FB64200390FFF736
:100E8000E5FE0DF17700FFF7A9FB0398FFF7DEFE03
:100E90000DF16200FFF7A2FB4FF47A70FFF7D6FE68
:100EA000FFE743F60000C4F20100FFF7BBFE312864
:100EB0002BD1FFE700200C90FFE70C9802900DF279
:100EC0007B40FFF741F90146029888421CD2FFE7B8
:100ED00043F60000C4F20100FFF7A4FE322801D15E
:100EE000FFE711E00C990DF27B40415C43F60000F6
:100EF000C4F20100FFF79EFE0A20FFF7A7FEFFE7FE
:100F00000C9801300C90D8E735E043F60000C4F2AD
:100F10000100FFF787FE32282BD1FFE700200C905D
:100F2000FFE70C9801900DF19200FFF70DF90146D3
:100F3000019888421CD2FFE743F60000C4F201008A
:100F4000FFF770FE312801D1FFE711E00C990DF198
:100F50009200415C43F60000C4F20100FFF76AFE14
:100F60000A20FFF773FEFFE70C9801300C90D8E7DA
:100F700001E0FFE795E743F60000C4F201002021FD
:100F8000FFF758FD76E702E008C8121F08C1002AE3
:100F9000FAD170477047002001E001C1121F002AFA
:100FA000FBD17047020406080000000001020304A0
:100FB0000102030406070809486179206E68617020
:100FC000206C6169206C75612063686F6E20312030
:100FD000686F616320320A00312E205361702058FF
:100FE00065702054616E672044616E0A00322E20C5
:100FF00053617020586570204769616D2044616EAF
:101000000A002C002410000800000020C800000086
:10101000860F0008EC100008C8000020A81300008C
:10102000960F0008000000003338372C3139322C7D
:101030003138362C3631302C3636362C3334322C8F
:101040003330372C3431392C3237322C3939362C75
:101050003935312C3730392C3634312C3432342C6C
:1010600037322C3431332C3338342C3333352C395C
:1010700039332C32332C3435302C3434332C353056
:10108000362C3332382C3636372C3635302C373335
:10109000322C31362C3530362C3632322C32393037
:1010A0002C33322C3337302C3332322C3933332C2F
:1010B00037332C3233312C3235312C33332C363814
:1010C000392C3833342C31342C3435302C373538F6
:1010D0002C3235372C3638392C3931352C343833DD
:0C10E0002C3530372C3632330000000075
:0400000508000101ED
:00000001FF
