:020000040800F2
:100000001804002001010008090100080B01000884
:100010000D0100080F010008110100080000000098
:1000200000000000000000000000000013010008B4
:100030001501000800000000170100081901000860
:100040001B0100081B0100081B0100081B01000820
:100050001B0100081B0100081B0100081B01000810
:100060001B0100081B0100081B0100081B01000800
:100070001B0100081B0100081B0100081B010008F0
:100080001B0100081B0100081B0100081B010008E0
:100090001B0100081B0100081B0100081B010008D0
:1000A0001B0100081B0100081B0100081B010008C0
:1000B0001B0100081B0100081B0100081B010008B0
:1000C0001B0100081B0100081B0100081B010008A0
:1000D0001B0100081B0100081B0100081B01000890
:1000E0001B0100081B0100081B010008DFF80CD0F1
:1000F00000F09EF800480047B106000818040020F0
:100100000648804706480047FEE7FEE7FEE7FEE7B1
:10011000FEE7FEE7FEE7FEE7FEE7FEE7FD05000877
:10012000ED00000830B5041E71F1000404DB4FF04F
:100130000044404264EB0101141E73F1000405DB2E
:100140001C464FF00043524263EB0403101A8B41EC
:1001500001D3012030BD002030BD0EB540F2334147
:1001600002910021CDE900110A460B4600F011F87A
:1001700003B000BD10B5141E73F1000408DA401C72
:1001800041F1000192185B411A4301D120F00100B6
:1001900010BD2DE9F04D92469B4611B1B1FA81F2A6
:1001A00002E0B0FA80F22032904600F053F80446A4
:1001B0000F4640EA0A0041EA0B0153465A460843FB
:1001C00013D0114653EA010019D0C8F1400250463D
:1001D00000F04FF805460E4650465946424600F09C
:1001E00039F8084305D0012004E020463946BDE82F
:1001F000F08D0020054346EAE0762C4337430A9809
:100200006305E40AA0EB08000022FD0A44EA475413
:100210000A3002D500200146E9E7010510196941BD
:10022000DDE9084500196941BDE8F04DA2E700008D
:10023000064C074D06E0E06840F0010394E8070033
:1002400098471034AC42F6D3FFF754FF9C070008E0
:10025000BC070008202A04DB203A00FA02F1002043
:1002600070479140C2F1200320FA03F319439040F4
:100270007047202A04DB203A21FA02F0002170475F
:1002800021FA02F3D040C2F12002914008431946FE
:100290007047000080B582B00C20012100F0FCF80E
:1002A00040F21001C2F2000101911020C870FF203D
:1002B00008800320887040F60000C4F2010000F0BE
:1002C00009F8019940F60040C4F2010000F002F87C
:1002D00002B080BD88B00790069100200590049080
:1002E00003900290019000900698C07800F00F00F3
:1002F00005900698C078C006002806D5FFE7069846
:100300008178059808430590FFE706980078002853
:100310004BD0FFE707980068019000200390FFE7AB
:10032000039807283DD8FFE70399012088400290F1
:10033000069800880299084004900498029988421F
:100340002AD1FFE703988000029002990F2088408D
:10035000009000990198884301900598029900FA4D
:1003600001F10198084301900698C078282806D129
:10037000FFE7039901208840079948610BE0069840
:10038000C078482806D1FFE70399012088400799E3
:100390000861FFE7FFE7FFE7FFE7039801300390FD
:1003A000BEE7019807990860FFE706980088B0F556
:1003B000807F50DBFFE707984068019000200390A2
:1003C000FFE70398072842D8FFE7039800F10801E8
:1003D0000120884002900698008802990840049005
:1003E0000498029988422DD1FFE70398800002907B
:1003F00002990F208840009000990198884301904D
:100400000598029900FA01F10198084301900698B5
:10041000C078282808D1FFE7039800F108010120DF
:10042000884007994861FFE70698C078482808D1B6
:10043000FFE7039800F1080101208840079908614F
:10044000FFE7FFE7FFE7039801300390B9E7019862
:1004500007994860FFE708B07047000082B001903C
:10046000ADF80210BDF802000199486102B0704772
:1004700082B00190ADF80210BDF802000199086148
:1004800002B0704782B00190ADF80210BDF80200D2
:100490000199C86002B0704782B001908DF80310D6
:1004A0009DF8030048B1FFE7019A41F21801C4F238
:1004B000020108681043086008E0019A41F218013F
:1004C000C4F20201086890430860FFE702B0704779
:1004D00080B500F001F880BD84B000200390029048
:1004E00041F20001C4F20201086840F48030086063
:1004F000FFE741F20000C4F20200006800F400309F
:100500000290039801300390FFE7029900200190C8
:1005100039B9FFE70398B0F5A06018BF012001903A
:10052000FFE70198C0070028E3D1FFE741F2000090
:10053000C4F2020000688003002803D5FFE7012011
:10054000029002E000200290FFE70298012851D1BA
:10055000FFE742F20001C4F20201086840F0100017
:100560000860086820F007000860086840F0020092
:10057000086041F20401C4F20201009108680860B9
:1005800008680860086840F480600860086820F423
:100590007C100860086840F4E810086041F200012F
:1005A000C4F20201086840F080700860FFE741F281
:1005B0000000C4F2020000688001002801D4FFE7B7
:1005C000F5E741F20401C4F20201086820F00300DB
:1005D0000860086840F002000860FFE741F204008C
:1005E000C4F20200006800F00C00082801D0FFE708
:1005F000F4E700E0FFE704B07047000080B541F287
:100600000002C4F20202106840F00100106041F2E2
:100610000401C4F2020108680023CFF6FF0318406A
:10062000086010684FF6FF73CFF6F663184010604D
:10063000106820F480201060086820F4FE00086034
:1006400041F20801C4F202014FF41F000860FFF7F5
:100650003FFF4EF60851CEF200014FF000600860F7
:1006600080BD000080B584B003910290002001900D
:10067000FFE70198FFF771FD029A039BFFF752FD18
:1006800098B9FFE700200090FFE7009842F6FE21AE
:10069000884205D8FFE7FFE7009801300090F4E7B3
:1006A000FFE7019801300190E3E704B080BD00004E
:1006B00080B58CB000200B90FFF7ECFDFFE7002029
:1006C0000A90FFE70A98632857D8FFE700200990AF
:1006D000FFE7099818284BD8FFE70A984CF6CD4158
:1006E000CCF6CC410291A0FB0110C10840F2000001
:1006F000C2F200000390415C40F60000C4F2010029
:100700000490FFF7BFFE40F60040C4F201000790DE
:1007100001210191FFF7ACFE002005900021C3F6F6
:10072000F0710691FFF79EFF01990798FFF796FE7B
:10073000029B039904980A9AA2FB03C3DB0803EB0C
:100740008303A2EB4302895CFFF79CFE079802211A
:100750000891FFF78DFE05980699FFF783FF07982C
:100760000899FFF77BFEFFE7099801300990B0E791
:10077000FFE70A9801300A90A4E7A0E702E008C862
:10078000121F08C1002AFAD170477047002001E00B
:1007900001C1121F002AFBD170470000C0070008EA
:1007A00000000020100000007C070008D0070008AF
:1007B00010000020080400008C0700080000000062
:1007C000C0F9A4B0999282F8809000000000000067
:04000005080000ED02
:00000001FF
