:020000040800F2
:100000001004002001010008090100080B0100088C
:100010000D0100080F010008110100080000000098
:1000200000000000000000000000000013010008B4
:100030001501000800000000170100081901000860
:100040001B0100081B0100081B0100081B01000820
:100050001B0100081B0100081B0100081B01000810
:100060001B0100081B0100081B0100081B01000800
:100070001B0100081B0100081B0100081B010008F0
:100080001B0100081B0100081B0100081B010008E0
:100090001B0100081B0100081B0100081B010008D0
:1000A0001B0100081B0100081B0100081B010008C0
:1000B0001B0100081B0100081B0100081B010008B0
:1000C0001B0100081B0100081B0100081B010008A0
:1000D0001B0100081B0100081B0100081B01000890
:1000E0001B0100081B0100081B010008DFF80CD0F1
:1000F00000F018F800480047FD0500081004002033
:100100000648804706480047FEE7FEE7FEE7FEE7B1
:10011000FEE7FEE7FEE7FEE7FEE7FEE7C1030008B5
:10012000ED000008064C074D06E0E06840F00103D2
:1001300094E8070098471034AC42F6D3FFF7DAFF93
:1001400080060008A00600082DE9F047CA7802F0F2
:100150000F0CD30644BF8B784CEA030C09880B06BE
:1001600025D082465AF8144B00F1100E00254FF0AE
:1001700001094FF00F08002706E000BF1E6001379D
:10018000082F05F1040511D009FA07F60E42F6D042
:1001900008FA05F324EA03030CFA05F41C43282AA1
:1001A0005346EBD0482AEAD17346E7E70460B1F53D
:1001B000807F38BFBDE8F087436800F1100E00F182
:1001C000140900254FF4807A4FF00F08002705E04E
:1001D00034600137082F05F1040512D00AFA07F43C
:1001E00004EA0106A642F4D108FA05F6B3430CFA74
:1001F00005F63343282A4E46EAD0482AE9D1764606
:10020000E6E74360BDE8F0878068084018BF01203A
:10021000704700004161704701617047C1607047DD
:10022000002941F21801C4F202010A680CBF22EA57
:1002300000001043086070472DE9F04381B0064686
:1002400044F6D350C1F2620086FB000142F600453D
:10025000881140F20008C4F2010500EBD170C2F22F
:10026000000818F80010A5F510542046FFF7D6FF37
:1002700020464FF48071FFF7CFFF2846012100F0A0
:1002800027F92846002100F02FF900BF284600F08A
:1002900029F96428FAD32846002100F019F92046EC
:1002A0004FF48071FFF7B6FF48F21F50C5F2EB1014
:1002B00086FB0001481146F2676900EBD170C6F277
:1002C000666980FB0912911001EBD27101EB81018B
:1002D000A0EB410018F800102046FFF79FFF2046D2
:1002E0004FF40071FFF798FF2846012100F0F0F865
:1002F0002846002100F0F8F8284600F0F3F86428BA
:10030000FAD32846002100F0E3F820464FF40071AC
:10031000FFF780FF86FB0901881000EBD17787FB90
:100320000901881000EBD17000EB8000A7EB4000C2
:1003300018F800102046FFF771FF20464FF4806147
:10034000FFF76AFF2846012100F0C2F82846002185
:1003500000F0CAF8284600F0C5F86428FAD3284609
:10036000002100F0B5F820464FF48061FFF752FFFE
:1003700007EB8700A6EB400018F800102046FFF7B7
:100380004DFF20464FF40061FFF746FF284601214C
:1003900000F09EF82846002100F0A6F8284600F05C
:1003A000A1F86428FAD32846002100F091F82046ED
:1003B0004FF40061FFF72EFF01B0BDE8F0830000AD
:1003C00082B041F20400C4F2020050F8041C002282
:1003D00041F0010140F8041C0168CFF6FF02114012
:1003E000016050F8041C4FF6FF72CFF6F662114020
:1003F00040F8041C50F8041C21F4802140F8041C2F
:10040000016821F4FE0101604FF41F0141600021E9
:100410000191009150F8041C41F4803140F8041C13
:1004200050F8041C01F4003100910199013101914F
:10043000009919B90199B1F5A06FF1D150F8041CD8
:10044000890354BF0021012100910099012936D16F
:1004500042F20001C4F202010A6842F010020A608E
:100460000A6822F007020A600A6842F002020A6083
:100470000168016001680160016841F48061016008
:10048000016821F47C110160016841F4E811016008
:1004900050F8041C41F0807140F8041C50F8041C12
:1004A0008901FBD5016821F003010160016841F079
:1004B00002010160016801F00C010829FAD14EF631
:1004C0000850CEF200004FF00061016002B07047AA
:1004D0000288002918BF012122F001021144018085
:1004E00070470000808C70478184704740F6FF336E
:1004F000B0F800C0C4F2000398420FDCB0F1804FA6
:100500001ED040F20043C4F20003984218D040F6D7
:100510000003C4F20003984212D016E040F60043F4
:10052000C4F2000398420BD043F20043C4F201032B
:10053000984205D042F60043C4F20103984204D128
:100540004B882CF0700243EA020C41F2004240F466
:100550008063C4F20002934204D0CA882CF4407332
:1005600042EA030CA0F800C08A888285A0F180428C
:10057000A2F596320B884FEAB222072A038507D8E4
:10058000012303FA02F212F0E50F1CBF097A01867B
:100590000121818270470000F0B581B040F600442F
:1005A0000020C4F2010441F2707600BF05462046E7
:1005B0004FF48051FFF728FE00284FF00000F5D0DF
:1005C00020464FF48041FFF71FFE58B903E000BFFB
:1005D0002846FFF731FE20464FF48041FFF714FE16
:1005E0000128F5D1182700BF2846FFF725FE013F57
:1005F000FAD1681CB042D9D101B0F0BD84B004205A
:100600000121FFF70DFE40F6FF7040F60004C1F235
:100610000300C4F20104019001A92046FFF794FDF4
:1006200008200121FFF7FCFD45F20000C4F603009D
:10063000019004F5806001A9FFF786FD4FF400608A
:100640000121FFF7EDFD4FF6FF70ADF808004720E0
:10065000019004F5105001A9FFF748FFFFF79CFF38
:10066000FCE702E008C8121F08C1002AFAD170474F
:100670007047002001E001C1121F002AFBD1704722
:10068000A0060008000000200C0000006206000820
:10069000AC060008100000200004000072060008EC
:0C06A000C0F9A4B0999282F8809000008C
:0400000508000101ED
:00000001FF
