:020000040800F2
:100000001804002001010008090100080B01000884
:100010000D0100080F010008110100080000000098
:1000200000000000000000000000000013010008B4
:100030001501000800000000170100081901000860
:100040001B0100081B0100081B0100081B01000820
:100050001B0100081B0100081B0100081B01000810
:100060001B0100081B0100081B0100081B01000800
:100070001B0100081B0100081B0100081B010008F0
:100080001B0100081B0100081B0100081B010008E0
:100090001B0100081B0100081B0100081B010008D0
:1000A0001B0100081B0100081B0100081B010008C0
:1000B0001B0100081B0100081B0100081B010008B0
:1000C0001B0100081B0100081B0100081B010008A0
:1000D0001B0100081B0100081B0100081B01000890
:1000E0001B0100081B0100081B010008DFF80CD0F1
:1000F00000F018F8004800476505000818040020C3
:100100000648804706480047FEE7FEE7FEE7FEE7B1
:10011000FEE7FEE7FEE7FEE7FEE7FEE77D030008F9
:10012000ED000008064C074D06E0E06840F00103D2
:1001300094E8070098471034AC42F6D3FFF7DAFF93
:100140000C0600082C0600082DE9F047CA7802F0DA
:100150000F0CD30644BF8B784CEA030C09880B06BE
:1001600025D082465AF8144B00F1100E00254FF0AE
:1001700001094FF00F08002706E000BF1E6001379D
:10018000082F05F1040511D009FA07F60E42F6D042
:1001900008FA05F324EA03030CFA05F41C43282AA1
:1001A0005346EBD0482AEAD17346E7E70460B1F53D
:1001B000807F38BFBDE8F087436800F1100E00F182
:1001C000140900254FF4807A4FF00F08002705E04E
:1001D00034600137082F05F1040512D00AFA07F43C
:1001E00004EA0106A642F4D108FA05F6B3430CFA74
:1001F00005F63343282A4E46EAD0482AE9D1764606
:10020000E6E74360BDE8F0874161704701617047F0
:10021000C16070472DE9F04140F21005C2F20005BF
:10022000286840F214083C28C2F200080AD1D8F825
:1002300000000130B0F13C0118BF01460020C8F8B1
:100240000010286040F60004C4F2010420464FF478
:100250000061FFF7D9FF28684CF6CD46CCF6CC46B6
:10026000A0FB0612D10801EB810140F20007A0EBD0
:100270004100C2F20007395C2046FFF7C9FF204663
:100280004FF40061FFF7C2FF20464FF48061FFF793
:10029000BBFF2868A0FB0601C808395C2046FFF7B1
:1002A000B7FF20464FF48061FFF7B0FF20464FF4C0
:1002B0000071FFF7A9FFD8F80000A0FB0612D108D3
:1002C00001EB8101A0EB4100395C2046FFF7A0FF64
:1002D00020464FF40071FFF799FF20464FF48071DC
:1002E000FFF792FFD8F80000A0FB0601C808395CB0
:1002F0002046FFF78DFF20464FF48071FFF786FF01
:10030000BDE8F08110B5C17800294EF20011CEF29F
:1003100000011AD04EF60C52CEF2000212680723EA
:1003200023EA12220F23C2F1040C23FA02F24378CB
:10033000847890F800E003FA0CF322401A4312018B
:1003400001EB0E0383F8002300E0803100780123E5
:1003500000F01F0203FA02F2C0F3421041F820201D
:1003600010BD0000002941F21801C4F202010A6820
:100370000CBF22EA000010430860704782B041F2CF
:100380000400C4F2020050F8041C002241F00101F4
:1003900040F8041C0168CFF6FF021140016050F8DC
:1003A000041C4FF6FF72CFF6F662114040F8041CB1
:1003B00050F8041C21F4802140F8041C016821F449
:1003C000FE0101604FF41F01416000210191009185
:1003D00050F8041C41F4803140F8041C50F8041C0F
:1003E00001F400310091019901310191009919B98D
:1003F0000199B1F5A06FF1D150F8041C890354BFE5
:100400000021012100910099012936D142F2000119
:10041000C4F202010A6842F010020A600A6822F07F
:1004200007020A600A6842F002020A60016801607D
:1004300001680160016841F480610160016821F494
:100440007C110160016841F4E811016050F8041C5E
:1004500041F0807140F8041C50F8041C8901FBD560
:10046000016821F003010160016841F002010160AF
:10047000016801F00C010829FAD14EF60850CEF2BD
:1004800000004FF00061016002B07047C943018273
:10049000704700000288002918BF012122F00102E4
:1004A0001144018070470000002A82890CBF22EAB3
:1004B000010111438181704740F6FF33B0F800C05D
:1004C000C4F2000398420FDCB0F1804F1ED040F21E
:1004D0000043C4F20003984218D040F60003C4F26F
:1004E0000003984212D016E040F60043C4F2000325
:1004F00098420BD043F20043C4F20103984205D066
:1005000042F60043C4F20103984204D14B882CF018
:10051000700243EA020C41F2004240F48063C4F2EC
:100520000002934204D0CA882CF4407342EA030CC0
:10053000A0F800C08A888285A0F18042A2F5963298
:100540000B884FEAB222072A038507D8012303FA52
:1005500002F212F0E50F1CBF097A018601218182A7
:100560007047000084B004200121FFF7FBFE40F635
:10057000FF7042F60044C1F20300C4F2010401908E
:10058000A4F5105001A9FFF7DFFD4DF60C40CFF6A2
:10059000FF70FF2121504FF400600121FFF7E2FEC0
:1005A00042F20F70C0F20100029041F61F4001902C
:1005B00000208DF80C0001A92046FFF77DFF2046A2
:1005C0000121FFF767FF20460121FFF75FFF20466B
:1005D00001210122FFF768FF1920C0F200100090EE
:1005E0006846FFF78FFE00BFFFF714FEFCE702E04E
:1005F00008C8121F08C1002AFAD1704770470020AE
:1006000001E001C1121F002AFBD170472C0600082F
:10061000000000200C000000EE050008380600086D
:100620001000002008040000FE050008C0F9A4B076
:08063000999282F8809000000D
:0400000508000101ED
:00000001FF
