:020000040800F2
:100000001804002001010008090100080B01000884
:100010000D0100080F010008110100080000000098
:1000200000000000000000000000000013010008B4
:100030001501000800000000170100081901000860
:100040001B0100081B0100081B0100081B01000820
:100050001B0100081B0100081B0100081B01000810
:100060001B0100081B0100081B0100081B01000800
:100070001B0100081B0100081B0100081B010008F0
:100080001B0100081B0100081B0100081B010008E0
:100090001B0100081B0100081B0100081B010008D0
:1000A0001B0100081B0100081B0100081B010008C0
:1000B0001B0100081B0100081B0100081B010008B0
:1000C0001B0100081B0100081B0100081B010008A0
:1000D0001B0100081B0100081B0100081B01000890
:1000E0001B0100081B0100081B010008DFF80CD0F1
:1000F00000F018F80048004789090008180400209B
:100100000648804706480047FEE7FEE7FEE7FEE7B1
:10011000FEE7FEE7FEE7FEE7FEE7FEE7FD06000876
:10012000ED000008064C074D06E0E06840F00103D2
:1001300094E8070098471034AC42F6D3FFF7DAFF93
:10014000C0090008E009000880B584B01020012132
:10015000019100F089F940F21001C2F2000103910F
:1001600048200090C8704FF400500880032002908F
:10017000887041F20000C4F2010000F079F80199A2
:10018000082000F071F9009B019A02980399CB7046
:100190000A80887040F60040C4F2010000F068F860
:1001A00004B080BD80B50420012100F05DF940F26B
:1001B0001001C2F200011020C87041F67F60088073
:1001C0000320887040F60000C4F2010000F050F8EF
:1001D00080BD000080B584B04FF400600121009123
:1001E00000F042F900980021ADF806104FF6FF71BB
:1001F000ADF80810ADF8040042F60040C4F201006A
:1002000001A900F0D5FA04B080BD000080B582B02D
:10021000FFF7E0FF42F60040C4F201000190012127
:1002200000F0A0FA0198002100F0B8FAFFE742F6CA
:100230000040C4F2010000F0ABFA472801DCFFE700
:10024000F5E742F60040C4F20100002100F08AFA0E
:1002500002B080BD80B582B00190FFE70198411ED9
:10026000019118B1FFE7FFF7D1FFF7E702B080BDBA
:1002700088B00790069100200590049003900290AA
:10028000019000900698C07800F00F000590069845
:10029000C078C006002806D5FFE706988178059843
:1002A00008430590FFE70698007800284BD0FFE749
:1002B00007980068019000200390FFE70398072843
:1002C0003DD8FFE7039901208840029006980088F6
:1002D0000299084004900498029988422AD1FFE7C5
:1002E00003988000029002990F20884000900099A6
:1002F0000198884301900598029900FA01F101984C
:10030000084301900698C078282806D1FFE7039992
:1003100001208840079948610BE00698C07848287A
:1003200006D1FFE703990120884007990861FFE79C
:10033000FFE7FFE7FFE7039801300390BEE701986E
:1003400007990860FFE706980088B0F5807F50DBCA
:10035000FFE707984068019000200390FFE70398AB
:10036000072842D8FFE7039800F1080101208840E0
:100370000290069800880299084004900498029917
:1003800088422DD1FFE703988000029002990F2048
:10039000884000900099019888430190059802993F
:1003A00000FA01F10198084301900698C0782828C6
:1003B00008D1FFE7039800F1080101208840079960
:1003C0004861FFE70698C078482808D1FFE70398FE
:1003D00000F108010120884007990861FFE7FFE765
:1003E000FFE7039801300390B9E701980799486047
:1003F000FFE708B07047000082B00190ADF802102E
:1004000000208DF8010001988068BDF802100842B4
:1004100004D0FFE701208DF8010003E000208DF8F3
:100420000100FFE79DF8010002B0704782B0019023
:10043000ADF80210BDF802000199486102B07047A2
:1004400082B00190ADF80210BDF802000199086178
:1004500002B0704782B00190ADF80210BDF8020002
:100460000199C86002B0704782B001908DF8031006
:100470009DF8030048B1FFE7019A41F21801C4F268
:10048000020108681043086008E0019A41F218016F
:10049000C4F20201086890430860FFE702B07047A9
:1004A00080B58AB00990099844F6D351C1F262012F
:1004B00080FB0101881100EBD17140F20000C2F213
:1004C00000000590415C40F60000C4F20100079076
:1004D000FFF7C0FF07984FF400710191FFF7B0FFDD
:1004E0000A200690FFF7B6FE01990798FFF79EFFD6
:1004F00005990798099A48F21F53C5F2EB1382FB3E
:1005000003235A1102EBD37246F26763C6F26663A5
:10051000049382FB033C4FEAAC0303EBDC7303EB75
:100520008303A2EB4302895CFFF794FF07984FF423
:1005300080610291FFF784FF0698FFF78BFE029916
:100540000798FFF773FF049B05990798099A82FBA8
:10055000032C4FEAAC0202EBDC7282FB033C4FEA55
:10056000AC0303EBDC7303EB8303A2EB4302895C74
:10057000FFF770FF07984FF400610391FFF760FFEA
:100580000698FFF767FE03990798FFF74FFF049B54
:1005900005990798099A82FB033C4FEAAC0303EBE9
:1005A000DC7303EB8303A2EB4302895CFFF752FF8A
:1005B00007984FF480510891FFF742FF0698FFF724
:1005C00049FE07980899FFF731FF0AB080BD000087
:1005D00080B500F001F880BD84B000200390029047
:1005E00041F20001C4F20201086840F48030086062
:1005F000FFE741F20000C4F20200006800F400309E
:100600000290039801300390FFE7029900200190C7
:1006100039B9FFE70398B0F5A06018BF0120019039
:10062000FFE70198C0070028E3D1FFE741F200008F
:10063000C4F2020000688003002803D5FFE7012010
:10064000029002E000200290FFE70298012851D1B9
:10065000FFE742F20001C4F20201086840F0100016
:100660000860086820F007000860086840F0020091
:10067000086041F20401C4F20201009108680860B8
:1006800008680860086840F480600860086820F422
:100690007C100860086840F4E810086041F200012E
:1006A000C4F20201086840F080700860FFE741F280
:1006B0000000C4F2020000688001002801D4FFE7B6
:1006C000F5E741F20401C4F20201086820F00300DA
:1006D0000860086840F002000860FFE741F204008B
:1006E000C4F20200006800F00C00082801D0FFE707
:1006F000F4E700E0FFE704B07047000080B541F286
:100700000002C4F20202106840F00100106041F2E1
:100710000401C4F2020108680023CFF6FF03184069
:10072000086010684FF6FF73CFF6F663184010604C
:10073000106820F480201060086820F4FE00086033
:1007400041F20801C4F202014FF41F000860FFF7F4
:100750003FFF4EF60851CEF200014FF000600860F6
:1007600080BD000082B001908DF803109DF8030059
:1007700030B1FFE70199088840F00100088005E0EA
:100780000199088820F001000880FFE702B0704757
:1007900081B000900098808C01B0704782B00190C9
:1007A000ADF80210BDF802000199888402B07047CC
:1007B00083B0029001910020ADF8020002980088F9
:1007C000ADF80200029842F60041C4F201018842ED
:1007D00025D0FFE7029843F20041C4F201018842AC
:1007E0001DD0FFE70298B0F1804F18D0FFE70298C4
:1007F00040F20041C4F20001884210D0FFE70298A5
:1008000040F60001C4F20001884208D0FFE70298D8
:1008100040F60041C4F2000188420ED1FFE7BDF866
:10082000020020F07000ADF8020001984188BDF888
:1008300002000843ADF80200FFE7029841F2000110
:10084000C4F20001884216D0FFE7029841F200414D
:10085000C4F2000188420ED0FFE7BDF8020020F488
:100860004070ADF802000198C188BDF8020008434D
:10087000ADF80200FFE7BDF8020002990880019878
:1008800080880299888501980088029908850298D5
:1008900042F60041C4F20101884220D0FFE70298ED
:1008A00043F20041C4F20101884218D0FFE70298E8
:1008B00044F20001C4F20101884210D0FFE702981F
:1008C00044F20041C4F20101884208D0FFE70298D7
:1008D00044F60001C4F20101884205D1FFE7019806
:1008E000007A02990886FFE702990120888203B006
:1008F0007047000080B584B001200190FFE7002020
:100900000390FFE7039841F26F71884239D8FFE7FF
:1009100041F20000C4F201004FF40051FFF76CFDFA
:1009200008B9FFE7EBE740F60040C4F201000121FF
:10093000FFF762FD88B9FFE7FFE740F60040C4F229
:1009400001000121FFF758FD012801D1FFE703E075
:100950000398FFF7A5FDF0E7FFE700200290FFE70F
:100960000298182808D8FFE70398FFF799FDFFE7DA
:10097000029801300290F3E7FFE7039801300390FB
:10098000C0E704B080BD000080B582B000200190B7
:10099000FFF708FCFFF7D8FBFFE7FFF7ABFFFCE72B
:1009A00002E008C8121F08C1002AFAD17047704738
:1009B000002001E001C1121F002AFBD17047000096
:1009C000E00900080000002010000000A009000855
:1009D000F00900081000002008040000B009000819
:1009E000C0F9A4B0999282F8809000000000000045
:04000005080000ED02
:00000001FF
