:020000040800F2
:100000001804002001010008090100080B01000884
:100010000D0100080F010008110100080000000098
:1000200000000000000000000000000013010008B4
:100030001501000800000000170100081901000860
:100040001B0100081B0100081B0100081B01000820
:100050001B0100081B0100081B0100081B01000810
:100060001B0100081B0100081B0100081B01000800
:100070001B0100081B0100081B0100081B010008F0
:100080001B0100081B0100081B0100081B010008E0
:100090001B0100081B0100081B0100081B010008D0
:1000A0001B0100081B0100081B0100081B010008C0
:1000B0001B0100081B0100081B0100081B010008B0
:1000C0001B0100081B0100081B0100081B010008A0
:1000D0001B0100081B0100081B0100081B01000890
:1000E0001B0100081B0100081B010008DFF80CD0F1
:1000F00000F018F8004800477908000818040020AC
:100100000648804706480047FEE7FEE7FEE7FEE7B1
:10011000FEE7FEE7FEE7FEE7FEE7FEE73D06000836
:10012000ED000008064C074D06E0E06840F00103D2
:1001300094E8070098471034AC42F6D3FFF7DAFF93
:10014000B0080008D008000880B50420012100F0A4
:1001500031F940F21001C2F200011020C87040F6DF
:10016000FF7008800320887040F60000C4F2010090
:1001700000F03EF880BD000080B584B04FF4006010
:10018000012100F017F90020ADF806004FF6FF70CE
:10019000ADF808004720ADF8040042F60040C4F274
:1001A000010001A900F0A4FA04B080BD80B582B0BE
:1001B00042F60040C4F201000190012100F072FA01
:1001C0000198002100F08AFAFFE742F60040C4F2ED
:1001D000010000F07DFA632801DCFFE7F5E742F655
:1001E0000040C4F20100002100F05CFA02B080BDC2
:1001F00088B007900691002005900490039002902B
:10020000019000900698C07800F00F0005900698C5
:10021000C078C006002806D5FFE7069881780598C3
:1002200008430590FFE70698007800284BD0FFE7C9
:1002300007980068019000200390FFE703980728C3
:100240003DD8FFE703990120884002900698008876
:100250000299084004900498029988422AD1FFE745
:1002600003988000029002990F2088400090009926
:100270000198884301900598029900FA01F10198CC
:10028000084301900698C078282806D1FFE7039913
:1002900001208840079948610BE00698C0784828FB
:1002A00006D1FFE703990120884007990861FFE71D
:1002B000FFE7FFE7FFE7039801300390BEE70198EF
:1002C00007990860FFE706980088B0F5807F50DB4B
:1002D000FFE707984068019000200390FFE703982C
:1002E000072842D8FFE7039800F108010120884061
:1002F0000290069800880299084004900498029998
:1003000088422DD1FFE703988000029002990F20C8
:1003100088400090009901988843019005980299BF
:1003200000FA01F10198084301900698C078282846
:1003300008D1FFE7039800F10801012088400799E0
:100340004861FFE70698C078482808D1FFE703987E
:1003500000F108010120884007990861FFE7FFE7E5
:10036000FFE7039801300390B9E7019807994860C7
:10037000FFE708B07047000082B00190ADF80210AE
:10038000BDF802000199486102B0704782B0019047
:10039000ADF80210BDF802000199086102B0704783
:1003A00082B00190ADF80210BDF802000199C8605A
:1003B00002B0704782B001908DF803109DF80300E1
:1003C00048B1FFE7019A41F21801C4F2020108683E
:1003D0001043086008E0019A41F21801C4F20201DA
:1003E000086890430860FFE702B0704780B588B0A6
:1003F0000790079844F6D351C1F2620180FB0101D6
:10040000881100EBD17140F20000C2F200000490AC
:10041000415C40F60000C4F201000590FFF7C0FF08
:1004200005984FF480710091FFF7B0FFFFF7BEFE13
:1004300000990598FFF7A0FF04990598079A48F2DC
:100440001F53C5F2EB1382FB03235A1102EBD37245
:1004500046F26763C6F26663039382FB033C4FEA8E
:10046000AC0303EBDC7303EB8303A2EB4302895C75
:10047000FFF796FF05984FF400710191FFF786FF93
:10048000FFF794FE01990598FFF776FF039B049907
:100490000598079A82FB032C4FEAAC0202EBDC7250
:1004A00082FB033C4FEAAC0303EBDC7303EB8303F7
:1004B000A2EB4302895CFFF773FF05984FF480615C
:1004C0000291FFF763FFFFF771FE02990598FFF7AE
:1004D00053FF039B04990598079A82FB033C4FEA5C
:1004E000AC0303EBDC7303EB8303A2EB4302895CF5
:1004F000FFF756FF05984FF400610691FFF746FF9E
:10050000FFF754FE05980699FFF736FF08B080BD47
:1005100080B500F001F880BD84B000200390029007
:1005200041F20001C4F20201086840F48030086022
:10053000FFE741F20000C4F20200006800F400305E
:100540000290039801300390FFE702990020019088
:1005500039B9FFE70398B0F5A06018BF01200190FA
:10056000FFE70198C0070028E3D1FFE741F2000050
:10057000C4F2020000688003002803D5FFE70120D1
:10058000029002E000200290FFE70298012851D17A
:10059000FFE742F20001C4F20201086840F01000D7
:1005A0000860086820F007000860086840F0020052
:1005B000086041F20401C4F2020100910868086079
:1005C00008680860086840F480600860086820F4E3
:1005D0007C100860086840F4E810086041F20001EF
:1005E000C4F20201086840F080700860FFE741F241
:1005F0000000C4F2020000688001002801D4FFE777
:10060000F5E741F20401C4F20201086820F003009A
:100610000860086840F002000860FFE741F204004B
:10062000C4F20200006800F00C00082801D0FFE7C7
:10063000F4E700E0FFE704B07047000080B541F246
:100640000002C4F20202106840F00100106041F2A2
:100650000401C4F2020108680023CFF6FF0318402A
:10066000086010684FF6FF73CFF6F663184010600D
:10067000106820F480201060086820F4FE000860F4
:1006800041F20801C4F202014FF41F000860FFF7B5
:100690003FFF4EF60851CEF200014FF000600860B7
:1006A00080BD000082B001908DF803109DF803001A
:1006B00030B1FFE70199088840F00100088005E0AB
:1006C0000199088820F001000880FFE702B0704718
:1006D00081B000900098808C01B0704782B001908A
:1006E000ADF80210BDF802000199888402B070478D
:1006F00083B0029001910020ADF8020002980088BA
:10070000ADF80200029842F60041C4F201018842AD
:1007100025D0FFE7029843F20041C4F2010188426C
:100720001DD0FFE70298B0F1804F18D0FFE7029884
:1007300040F20041C4F20001884210D0FFE7029865
:1007400040F60001C4F20001884208D0FFE7029899
:1007500040F60041C4F2000188420ED1FFE7BDF827
:10076000020020F07000ADF8020001984188BDF849
:1007700002000843ADF80200FFE7029841F20001D1
:10078000C4F20001884216D0FFE7029841F200410E
:10079000C4F2000188420ED0FFE7BDF8020020F449
:1007A0004070ADF802000198C188BDF8020008430E
:1007B000ADF80200FFE7BDF8020002990880019839
:1007C0008088029988850198008802990885029896
:1007D00042F60041C4F20101884220D0FFE70298AE
:1007E00043F20041C4F20101884218D0FFE70298A9
:1007F00044F20001C4F20101884210D0FFE70298E0
:1008000044F20041C4F20101884208D0FFE7029897
:1008100044F60001C4F20101884205D1FFE70198C6
:10082000007A02990886FFE702990120888203B0C6
:100830007047000080B582B0FFE700200190FFE71D
:10084000019841F26F71884214D8FFE700200090B0
:10085000FFE70098172808D8FFE70198FFF7C6FDC3
:10086000FFE7009801300090F3E7FFE701980130BF
:100870000190E5E702B080BD80B582B00020019014
:10088000FFF762FCFFF778FCFFE7FFF7D3FFFCE719
:1008900002E008C8121F08C1002AFAD17047704749
:1008A000002001E001C1121F002AFBD170470000A7
:1008B000D008000800000020100000009008000888
:1008C000E00800081000002008040000A00800084C
:1008D000C0F9A4B0999282F8809000000000000056
:04000005080000ED02
:00000001FF
