:020000040800F2
:100000001004002001010008090100080B0100088C
:100010000D0100080F010008110100080000000098
:1000200000000000000000000000000013010008B4
:100030001501000800000000170100081901000860
:100040001B0100081B0100081B0100081B01000820
:100050001B0100081B0100081B0100081B01000810
:100060001B0100081B0100081B0100081B01000800
:100070001B0100081B0100081B0100081B010008F0
:100080001B0100081B0100081B0100081B010008E0
:100090001B0100081B0100081B0100081B010008D0
:1000A0001B0100081B0100081B0100081B010008C0
:1000B0001B0100081B0100081B0100081B010008B0
:1000C0001B0100081B0100081B0100081B010008A0
:1000D0001B0100081B0100081B0100081B01000890
:1000E0001B0100081B0100081B010008DFF80CD0F1
:1000F00000F020F800480047A50800081004002080
:100100000648804706480047FEE7FEE7FEE7FEE7B1
:10011000FEE7FEE7FEE7FEE7FEE7FEE75D06000816
:10012000ED000008421C10F8011B0029FBD1801AC9
:1001300070470000064C074D06E0E06840F0010300
:1001400094E8070098471034AC42F6D3FFF7D2FF8B
:10015000380900085809000880B586B004200190CD
:10016000012100F00FF94FF40070ADF814001820D1
:100170008DF81700032002908DF8160040F600005D
:10018000C4F20100039005A9049100F037F8019B27
:10019000029A039804994FF4806CADF814C08DF85E
:1001A00017308DF8162000F029F806B080BD000049
:1001B00080B586B04FF480400121019100F0E2F853
:1001C0004FF4165002900020ADF814000821ADF84D
:1001D0001210ADF81000ADF80E00ADF80C0043F6AB
:1001E0000000C4F20100009002A900F081FA00981A
:1001F000019900F067FA06B080BD000088B0079052
:1002000006910020059004900390029001900090C8
:100210000698C07800F00F0005900698C078C006D8
:10022000002806D5FFE706988178059808430590D1
:10023000FFE70698007800284BD0FFE70798006892
:10024000019000200390FFE7039807283DD8FFE7BF
:10025000039901208840029006980088029908407E
:1002600004900498029988422AD1FFE703988000FD
:10027000029002990F2088400090009901988843CD
:1002800001900598029900FA01F101980843019044
:100290000698C078282806D1FFE7039901208840F6
:1002A000079948610BE00698C078482806D1FFE717
:1002B00003990120884007990861FFE7FFE7FFE7FE
:1002C000FFE7039801300390BEE7019807990860A3
:1002D000FFE706980088B0F5807F50DBFFE70798BE
:1002E0004068019000200390FFE70398072842D858
:1002F000FFE7039800F1080101208840029006986A
:1003000000880299084004900498029988422DD1EF
:10031000FFE703988000029002990F208840009028
:1003200000990198884301900598029900FA01F11B
:100330000198084301900698C078282808D1FFE763
:10034000039800F108010120884007994861FFE700
:100350000698C078482808D1FFE7039800F1080103
:100360000120884007990861FFE7FFE7FFE703984E
:1003700001300390B9E7019807994860FFE708B09A
:100380007047000082B001908DF803109DF80300C3
:1003900048B1FFE7019A41F21801C4F2020108686E
:1003A0001043086008E0019A41F21801C4F202010A
:1003B000086890430860FFE702B0704786B0059078
:1003C0000020049003900290019041F20400C4F2D6
:1003D0000200006800F00C0004900498009040B106
:1003E000FFE7009804280BD0FFE7009808280ED0FC
:1003F00047E0059941F20020C0F27A00086047E02A
:10040000059941F20020C0F27A00086040E041F214
:100410000400C4F20200016801F470110391006845
:1004200000F4803002900399022000EB9140039089
:10043000029848B9FFE7039840F60011C0F23D0169
:100440004843059908601BE041F20400C4F2020031
:1004500000688003002809D5FFE7039840F60011E3
:10046000C0F23D0148430599086008E0039841F255
:100470000021C0F27A01484305990860FFE7FFE7D1
:1004800006E0059941F20020C0F27A000860FFE71B
:1004900041F20400C4F20200016801F0F00104918D
:1004A000049909090491049A40F62811C0F6000144
:1004B0008A5C0192059B1A68DDF804C022FA0CF2EE
:1004C0005A60026802F4E0620492049A120A0492EA
:1004D000049A8A5C0192059B5A68DDF804C022FAEE
:1004E0000CF29A60026802F460520492049AD20AF2
:1004F0000492049A895C0191059A5168019BD94044
:10050000D160006800F4404004900498800B04908F
:10051000049940F62410C0F60000405C0190059953
:10052000C868019AB0FBF2F0086106B0704700009D
:1005300080B500F001F880BD84B0002003900290E7
:1005400041F20001C4F20201086840F48030086002
:10055000FFE741F20000C4F20200006800F400303E
:100560000290039801300390FFE702990020019068
:1005700039B9FFE70398B0F5A06018BF01200190DA
:10058000FFE70198C0070028E3D1FFE741F2000030
:10059000C4F2020000688003002803D5FFE70120B1
:1005A000029002E000200290FFE70298012851D15A
:1005B000FFE742F20001C4F20201086840F01000B7
:1005C0000860086820F007000860086840F0020032
:1005D000086041F20401C4F2020100910868086059
:1005E00008680860086840F480600860086820F4C3
:1005F0007C100860086840F4E810086041F20001CF
:10060000C4F20201086840F080700860FFE741F220
:100610000000C4F2020000688001002801D4FFE756
:10062000F5E741F20401C4F20201086820F003007A
:100630000860086840F002000860FFE741F204002B
:10064000C4F20200006800F00C00082801D0FFE7A7
:10065000F4E700E0FFE704B07047000080B541F226
:100660000002C4F20202106840F00100106041F282
:100670000401C4F2020108680023CFF6FF0318400A
:10068000086010684FF6FF73CFF6F66318401060ED
:10069000106820F480201060086820F4FE000860D4
:1006A00041F20801C4F202014FF41F000860FFF795
:1006B0003FFF4EF60851CEF200014FF00060086097
:1006C00080BD000082B001908DF803109DF80300FA
:1006D00030B1FFE70199888940F40050888105E036
:1006E0000199888920F400508881FFE702B07047A3
:1006F00080B58CB00B900A9100200990089007906B
:10070000069005900A98808908B1FFE7FFE70B98EB
:1007100005900B98008A099009984CF6FF710840E3
:1007200009900A98C18809980843099009980B997B
:1007300008820B988089099009984EF6F3110840B9
:1007400009900A9988880A891043498901430998C0
:100750000843099009980B9988810B98808A099021
:1007600009984FF6FF41084009900A988189099835
:100770000843099009980B9988826846FFF71EFE86
:10078000059843F60001C4F20101884203D1FFE756
:100790000398089002E002980890FFE70B98808980
:1007A000000400280AD5FFE70898192148430A9950
:1007B00009684900B0FBF1F0079009E00898192199
:1007C00048430A9909688900B0FBF1F00790FFE7F8
:1007D000079848F21F51C5F2EB11A0FB01016FF021
:1007E0000F0000EA51000990079A09980009642156
:1007F00000FB112006900B9880890004002810D57A
:10080000FFE70699322000EBC10048F21F51C5F204
:10081000EB11A0FB0110C0F34211099808430990A5
:100820000FE00699322000EB011048F21F51C5F28B
:10083000EB11A0FB0110C0F3431109980843099084
:10084000FFE709980B9908810CB080BD82B0019038
:10085000ADF80210BDF802006FF35F2001998880A7
:1008600002B0704783B0029000200190FFE701982A
:100870000299884213D2FFE700200090FFE700981A
:1008800042F6FE21884205D8FFE7FFE700980130D5
:100890000090F4E7FFE7019801300190E7E703B02B
:1008A0007047000080B584B000200390FFF780FC03
:1008B000FFF752FC6420FFF7D5FFFFE7002002900E
:1008C000FFE70298019040F20000C2F20000FFF73B
:1008D00029FC01460198884214D2FFE7029940F2B0
:1008E0000000C2F20000415C43F60000C4F20100C7
:1008F000FFF7ACFF3220FFF7B5FFFFE702980130AA
:100900000290DEE7DAE702E008C8121F08C1002AF9
:10091000FAD170477047002001E001C1121F002A80
:10092000FBD1704702040608000000000102030426
:100930000102030406070809580900080000002006
:1009400010000000060900086809000810000020D7
:1009500000040000160900084B696D205475616E93
:08096000204B69656E0A0000DE
:0400000508000101ED
:00000001FF
